{
	".deps/remix-tests/Lab_4_assignment.sol": {
		"TokenTransfer": {
			"abi": [
				{
					"inputs": [],
					"stateMutability": "nonpayable",
					"type": "constructor"
				},
				{
					"anonymous": false,
					"inputs": [
						{
							"indexed": false,
							"internalType": "address",
							"name": "sender",
							"type": "address"
						},
						{
							"indexed": false,
							"internalType": "uint256",
							"name": "value",
							"type": "uint256"
						},
						{
							"indexed": false,
							"internalType": "bytes",
							"name": "data",
							"type": "bytes"
						}
					],
					"name": "Deposit",
					"type": "event"
				},
				{
					"anonymous": false,
					"inputs": [
						{
							"indexed": false,
							"internalType": "address",
							"name": "sender",
							"type": "address"
						},
						{
							"indexed": false,
							"internalType": "uint256",
							"name": "value",
							"type": "uint256"
						},
						{
							"indexed": false,
							"internalType": "bytes",
							"name": "data",
							"type": "bytes"
						}
					],
					"name": "LogFallback",
					"type": "event"
				},
				{
					"anonymous": false,
					"inputs": [
						{
							"indexed": true,
							"internalType": "address",
							"name": "from",
							"type": "address"
						},
						{
							"indexed": true,
							"internalType": "address",
							"name": "to",
							"type": "address"
						},
						{
							"indexed": false,
							"internalType": "uint256",
							"name": "value",
							"type": "uint256"
						}
					],
					"name": "Transfer",
					"type": "event"
				},
				{
					"anonymous": false,
					"inputs": [
						{
							"indexed": true,
							"internalType": "address",
							"name": "sender",
							"type": "address"
						},
						{
							"indexed": false,
							"internalType": "uint256",
							"name": "value",
							"type": "uint256"
						}
					],
					"name": "receiveFallback",
					"type": "event"
				},
				{
					"stateMutability": "payable",
					"type": "fallback"
				},
				{
					"inputs": [
						{
							"internalType": "address",
							"name": "to",
							"type": "address"
						},
						{
							"internalType": "uint256",
							"name": "amount",
							"type": "uint256"
						}
					],
					"name": "addTokens",
					"outputs": [],
					"stateMutability": "payable",
					"type": "function"
				},
				{
					"inputs": [],
					"name": "admin",
					"outputs": [
						{
							"internalType": "address",
							"name": "",
							"type": "address"
						}
					],
					"stateMutability": "view",
					"type": "function"
				},
				{
					"inputs": [
						{
							"internalType": "uint256",
							"name": "amount",
							"type": "uint256"
						}
					],
					"name": "calculateTransferFee",
					"outputs": [
						{
							"internalType": "uint256",
							"name": "",
							"type": "uint256"
						}
					],
					"stateMutability": "pure",
					"type": "function"
				},
				{
					"inputs": [],
					"name": "deposit",
					"outputs": [],
					"stateMutability": "payable",
					"type": "function"
				},
				{
					"inputs": [
						{
							"internalType": "address",
							"name": "account",
							"type": "address"
						}
					],
					"name": "getBalance",
					"outputs": [
						{
							"internalType": "uint256",
							"name": "",
							"type": "uint256"
						}
					],
					"stateMutability": "view",
					"type": "function"
				},
				{
					"inputs": [],
					"name": "myBalance",
					"outputs": [
						{
							"internalType": "uint256",
							"name": "",
							"type": "uint256"
						}
					],
					"stateMutability": "view",
					"type": "function"
				},
				{
					"inputs": [],
					"name": "totalSupply",
					"outputs": [
						{
							"internalType": "uint256",
							"name": "",
							"type": "uint256"
						}
					],
					"stateMutability": "view",
					"type": "function"
				},
				{
					"inputs": [
						{
							"internalType": "address",
							"name": "to",
							"type": "address"
						},
						{
							"internalType": "uint256",
							"name": "amount",
							"type": "uint256"
						}
					],
					"name": "transferToken",
					"outputs": [],
					"stateMutability": "payable",
					"type": "function"
				},
				{
					"stateMutability": "payable",
					"type": "receive"
				}
			],
			"devdoc": {
				"kind": "dev",
				"methods": {},
				"version": 1
			},
			"evm": {
				"assembly": "    /* \".deps/remix-tests/Lab_4_assignment.sol\":61:2643  contract TokenTransfer{... */\n  mstore(0x40, 0x80)\n    /* \".deps/remix-tests/Lab_4_assignment.sol\":203:319  constructor(){... */\n  callvalue\n  dup1\n  iszero\n  tag_1\n  jumpi\n  0x00\n  dup1\n  revert\ntag_1:\n  pop\n    /* \".deps/remix-tests/Lab_4_assignment.sol\":233:243  msg.sender */\n  caller\n    /* \".deps/remix-tests/Lab_4_assignment.sol\":227:232  admin */\n  0x00\n  dup1\n    /* \".deps/remix-tests/Lab_4_assignment.sol\":227:243  admin=msg.sender */\n  0x0100\n  exp\n  dup2\n  sload\n  dup2\n  0xffffffffffffffffffffffffffffffffffffffff\n  mul\n  not\n  and\n  swap1\n  dup4\n  0xffffffffffffffffffffffffffffffffffffffff\n  and\n  mul\n  or\n  swap1\n  sstore\n  pop\n    /* \".deps/remix-tests/Lab_4_assignment.sol\":266:273  1000000 */\n  0x0f4240\n    /* \".deps/remix-tests/Lab_4_assignment.sol\":254:265  totalSupply */\n  0x01\n    /* \".deps/remix-tests/Lab_4_assignment.sol\":254:273  totalSupply=1000000 */\n  dup2\n  swap1\n  sstore\n  pop\n    /* \".deps/remix-tests/Lab_4_assignment.sol\":300:311  totalSupply */\n  sload(0x01)\n    /* \".deps/remix-tests/Lab_4_assignment.sol\":284:292  balances */\n  0x02\n    /* \".deps/remix-tests/Lab_4_assignment.sol\":284:299  balances[admin] */\n  0x00\n    /* \".deps/remix-tests/Lab_4_assignment.sol\":293:298  admin */\n  dup1\n  0x00\n  swap1\n  sload\n  swap1\n  0x0100\n  exp\n  swap1\n  div\n  0xffffffffffffffffffffffffffffffffffffffff\n  and\n    /* \".deps/remix-tests/Lab_4_assignment.sol\":284:299  balances[admin] */\n  0xffffffffffffffffffffffffffffffffffffffff\n  and\n  0xffffffffffffffffffffffffffffffffffffffff\n  and\n  dup2\n  mstore\n  0x20\n  add\n  swap1\n  dup2\n  mstore\n  0x20\n  add\n  0x00\n  keccak256\n    /* \".deps/remix-tests/Lab_4_assignment.sol\":284:311  balances[admin]=totalSupply */\n  dup2\n  swap1\n  sstore\n  pop\n    /* \".deps/remix-tests/Lab_4_assignment.sol\":61:2643  contract TokenTransfer{... */\n  dataSize(sub_0)\n  dup1\n  dataOffset(sub_0)\n  0x00\n  codecopy\n  0x00\n  return\nstop\n\nsub_0: assembly {\n        /* \".deps/remix-tests/Lab_4_assignment.sol\":61:2643  contract TokenTransfer{... */\n      mstore(0x40, 0x80)\n      jumpi(tag_1, lt(calldatasize, 0x04))\n      shr(0xe0, calldataload(0x00))\n      dup1\n      0xc9116b69\n      gt\n      tag_11\n      jumpi\n      dup1\n      0xc9116b69\n      eq\n      tag_7\n      jumpi\n      dup1\n      0xd0e30db0\n      eq\n      tag_8\n      jumpi\n      dup1\n      0xf851a440\n      eq\n      tag_9\n      jumpi\n      dup1\n      0xf8b2cb4f\n      eq\n      tag_10\n      jumpi\n      jump(tag_2)\n    tag_11:\n      dup1\n      0x1072cbea\n      eq\n      tag_3\n      jumpi\n      dup1\n      0x18160ddd\n      eq\n      tag_4\n      jumpi\n      dup1\n      0x37800bde\n      eq\n      tag_5\n      jumpi\n      dup1\n      0x6039fbdb\n      eq\n      tag_6\n      jumpi\n      jump(tag_2)\n    tag_1:\n      jumpi(tag_2, calldatasize)\n        /* \".deps/remix-tests/Lab_4_assignment.sol\":1022:1031  msg.value */\n      callvalue\n        /* \".deps/remix-tests/Lab_4_assignment.sol\":1003:1011  balances */\n      0x02\n        /* \".deps/remix-tests/Lab_4_assignment.sol\":1003:1018  balances[admin] */\n      0x00\n        /* \".deps/remix-tests/Lab_4_assignment.sol\":1012:1017  admin */\n      dup1\n      0x00\n      swap1\n      sload\n      swap1\n      0x0100\n      exp\n      swap1\n      div\n      0xffffffffffffffffffffffffffffffffffffffff\n      and\n        /* \".deps/remix-tests/Lab_4_assignment.sol\":1003:1018  balances[admin] */\n      0xffffffffffffffffffffffffffffffffffffffff\n      and\n      0xffffffffffffffffffffffffffffffffffffffff\n      and\n      dup2\n      mstore\n      0x20\n      add\n      swap1\n      dup2\n      mstore\n      0x20\n      add\n      0x00\n      keccak256\n      0x00\n        /* \".deps/remix-tests/Lab_4_assignment.sol\":1003:1031  balances[admin] += msg.value */\n      dup3\n      dup3\n      sload\n      tag_14\n      swap2\n      swap1\n      tag_15\n      jump\t// in\n    tag_14:\n      swap3\n      pop\n      pop\n      dup2\n      swap1\n      sstore\n      pop\n        /* \".deps/remix-tests/Lab_4_assignment.sol\":1063:1073  msg.sender */\n      caller\n        /* \".deps/remix-tests/Lab_4_assignment.sol\":1047:1085  receiveFallback(msg.sender, msg.value) */\n      0xffffffffffffffffffffffffffffffffffffffff\n      and\n      0xc4955bba0e4e30736e117bdeb7e76d2a9c8e21adb9a4d7acb7818fb1c38646d0\n        /* \".deps/remix-tests/Lab_4_assignment.sol\":1075:1084  msg.value */\n      callvalue\n        /* \".deps/remix-tests/Lab_4_assignment.sol\":1047:1085  receiveFallback(msg.sender, msg.value) */\n      mload(0x40)\n      tag_16\n      swap2\n      swap1\n      tag_17\n      jump\t// in\n    tag_16:\n      mload(0x40)\n      dup1\n      swap2\n      sub\n      swap1\n      log2\n        /* \".deps/remix-tests/Lab_4_assignment.sol\":61:2643  contract TokenTransfer{... */\n      stop\n    tag_2:\n        /* \".deps/remix-tests/Lab_4_assignment.sol\":1176:1207  transferToken(admin, msg.value) */\n      tag_20\n        /* \".deps/remix-tests/Lab_4_assignment.sol\":1190:1195  admin */\n      0x00\n      dup1\n      sload\n      swap1\n      0x0100\n      exp\n      swap1\n      div\n      0xffffffffffffffffffffffffffffffffffffffff\n      and\n        /* \".deps/remix-tests/Lab_4_assignment.sol\":1197:1206  msg.value */\n      callvalue\n        /* \".deps/remix-tests/Lab_4_assignment.sol\":1176:1189  transferToken */\n      tag_21\n        /* \".deps/remix-tests/Lab_4_assignment.sol\":1176:1207  transferToken(admin, msg.value) */\n      jump\t// in\n    tag_20:\n        /* \".deps/remix-tests/Lab_4_assignment.sol\":1223:1266  LogFallback(msg.sender, msg.value,msg.data) */\n      0x20b9b3489992921b2007700aa9859d96f2e511d719c19c44fbf72becb1e356d9\n        /* \".deps/remix-tests/Lab_4_assignment.sol\":1235:1245  msg.sender */\n      caller\n        /* \".deps/remix-tests/Lab_4_assignment.sol\":1247:1256  msg.value */\n      callvalue\n        /* \".deps/remix-tests/Lab_4_assignment.sol\":1257:1265  msg.data */\n      0x00\n      calldatasize\n        /* \".deps/remix-tests/Lab_4_assignment.sol\":1223:1266  LogFallback(msg.sender, msg.value,msg.data) */\n      mload(0x40)\n      tag_22\n      swap5\n      swap4\n      swap3\n      swap2\n      swap1\n      tag_23\n      jump\t// in\n    tag_22:\n      mload(0x40)\n      dup1\n      swap2\n      sub\n      swap1\n      log1\n        /* \".deps/remix-tests/Lab_4_assignment.sol\":61:2643  contract TokenTransfer{... */\n      stop\n        /* \".deps/remix-tests/Lab_4_assignment.sol\":1984:2283  function transferToken(address to, uint256 amount) public payable onlyAdmin hasSufficientBalance(amount){... */\n    tag_3:\n      tag_24\n      0x04\n      dup1\n      calldatasize\n      sub\n      dup2\n      add\n      swap1\n      tag_25\n      swap2\n      swap1\n      tag_26\n      jump\t// in\n    tag_25:\n      tag_21\n      jump\t// in\n    tag_24:\n      stop\n        /* \".deps/remix-tests/Lab_4_assignment.sol\":117:143  uint256 public totalSupply */\n    tag_4:\n      callvalue\n      dup1\n      iszero\n      tag_27\n      jumpi\n      0x00\n      dup1\n      revert\n    tag_27:\n      pop\n      tag_28\n      tag_29\n      jump\t// in\n    tag_28:\n      mload(0x40)\n      tag_30\n      swap2\n      swap1\n      tag_17\n      jump\t// in\n    tag_30:\n      mload(0x40)\n      dup1\n      swap2\n      sub\n      swap1\n      return\n        /* \".deps/remix-tests/Lab_4_assignment.sol\":1514:1976  function calculateTransferFee(uint256 amount) public pure returns(uint256){... */\n    tag_5:\n      callvalue\n      dup1\n      iszero\n      tag_31\n      jumpi\n      0x00\n      dup1\n      revert\n    tag_31:\n      pop\n      tag_32\n      0x04\n      dup1\n      calldatasize\n      sub\n      dup2\n      add\n      swap1\n      tag_33\n      swap2\n      swap1\n      tag_34\n      jump\t// in\n    tag_33:\n      tag_35\n      jump\t// in\n    tag_32:\n      mload(0x40)\n      tag_36\n      swap2\n      swap1\n      tag_17\n      jump\t// in\n    tag_36:\n      mload(0x40)\n      dup1\n      swap2\n      sub\n      swap1\n      return\n        /* \".deps/remix-tests/Lab_4_assignment.sol\":2291:2450  function addTokens(address to, uint256 amount) public payable  onlyAdmin{... */\n    tag_6:\n      tag_37\n      0x04\n      dup1\n      calldatasize\n      sub\n      dup2\n      add\n      swap1\n      tag_38\n      swap2\n      swap1\n      tag_26\n      jump\t// in\n    tag_38:\n      tag_39\n      jump\t// in\n    tag_37:\n      stop\n        /* \".deps/remix-tests/Lab_4_assignment.sol\":1414:1506  function myBalance() public view returns(uint){... */\n    tag_7:\n      callvalue\n      dup1\n      iszero\n      tag_40\n      jumpi\n      0x00\n      dup1\n      revert\n    tag_40:\n      pop\n      tag_41\n      tag_42\n      jump\t// in\n    tag_41:\n      mload(0x40)\n      tag_43\n      swap2\n      swap1\n      tag_17\n      jump\t// in\n    tag_43:\n      mload(0x40)\n      dup1\n      swap2\n      sub\n      swap1\n      return\n        /* \".deps/remix-tests/Lab_4_assignment.sol\":2458:2628  function deposit() external payable{... */\n    tag_8:\n      tag_44\n      tag_45\n      jump\t// in\n    tag_44:\n      stop\n        /* \".deps/remix-tests/Lab_4_assignment.sol\":90:110  address public admin */\n    tag_9:\n      callvalue\n      dup1\n      iszero\n      tag_46\n      jumpi\n      0x00\n      dup1\n      revert\n    tag_46:\n      pop\n      tag_47\n      tag_48\n      jump\t// in\n    tag_47:\n      mload(0x40)\n      tag_49\n      swap2\n      swap1\n      tag_50\n      jump\t// in\n    tag_49:\n      mload(0x40)\n      dup1\n      swap2\n      sub\n      swap1\n      return\n        /* \".deps/remix-tests/Lab_4_assignment.sol\":1298:1406  function getBalance(address account) public view returns(uint256){... */\n    tag_10:\n      callvalue\n      dup1\n      iszero\n      tag_51\n      jumpi\n      0x00\n      dup1\n      revert\n    tag_51:\n      pop\n      tag_52\n      0x04\n      dup1\n      calldatasize\n      sub\n      dup2\n      add\n      swap1\n      tag_53\n      swap2\n      swap1\n      tag_54\n      jump\t// in\n    tag_53:\n      tag_55\n      jump\t// in\n    tag_52:\n      mload(0x40)\n      tag_56\n      swap2\n      swap1\n      tag_17\n      jump\t// in\n    tag_56:\n      mload(0x40)\n      dup1\n      swap2\n      sub\n      swap1\n      return\n        /* \".deps/remix-tests/Lab_4_assignment.sol\":1984:2283  function transferToken(address to, uint256 amount) public payable onlyAdmin hasSufficientBalance(amount){... */\n    tag_21:\n        /* \".deps/remix-tests/Lab_4_assignment.sol\":382:387  admin */\n      0x00\n      dup1\n      sload\n      swap1\n      0x0100\n      exp\n      swap1\n      div\n      0xffffffffffffffffffffffffffffffffffffffff\n      and\n        /* \".deps/remix-tests/Lab_4_assignment.sol\":370:387  msg.sender==admin */\n      0xffffffffffffffffffffffffffffffffffffffff\n      and\n        /* \".deps/remix-tests/Lab_4_assignment.sol\":370:380  msg.sender */\n      caller\n        /* \".deps/remix-tests/Lab_4_assignment.sol\":370:387  msg.sender==admin */\n      0xffffffffffffffffffffffffffffffffffffffff\n      and\n      eq\n        /* \".deps/remix-tests/Lab_4_assignment.sol\":362:432  require(msg.sender==admin,\"Not authorized! ONly admin can call this.\") */\n      tag_58\n      jumpi\n      mload(0x40)\n      0x08c379a000000000000000000000000000000000000000000000000000000000\n      dup2\n      mstore\n      0x04\n      add\n      tag_59\n      swap1\n      tag_60\n      jump\t// in\n    tag_59:\n      mload(0x40)\n      dup1\n      swap2\n      sub\n      swap1\n      revert\n    tag_58:\n        /* \".deps/remix-tests/Lab_4_assignment.sol\":2081:2087  amount */\n      dup1\n        /* \".deps/remix-tests/Lab_4_assignment.sol\":516:533  uint256 totAmount */\n      0x00\n        /* \".deps/remix-tests/Lab_4_assignment.sol\":541:569  calculateTransferFee(amount) */\n      tag_62\n        /* \".deps/remix-tests/Lab_4_assignment.sol\":562:568  amount */\n      dup3\n        /* \".deps/remix-tests/Lab_4_assignment.sol\":541:561  calculateTransferFee */\n      tag_35\n        /* \".deps/remix-tests/Lab_4_assignment.sol\":541:569  calculateTransferFee(amount) */\n      jump\t// in\n    tag_62:\n        /* \".deps/remix-tests/Lab_4_assignment.sol\":534:540  amount */\n      dup3\n        /* \".deps/remix-tests/Lab_4_assignment.sol\":534:569  amount+calculateTransferFee(amount) */\n      tag_63\n      swap2\n      swap1\n      tag_15\n      jump\t// in\n    tag_63:\n        /* \".deps/remix-tests/Lab_4_assignment.sol\":516:569  uint256 totAmount=amount+calculateTransferFee(amount) */\n      swap1\n      pop\n        /* \".deps/remix-tests/Lab_4_assignment.sol\":612:621  totAmount */\n      dup1\n        /* \".deps/remix-tests/Lab_4_assignment.sol\":588:596  balances */\n      0x02\n        /* \".deps/remix-tests/Lab_4_assignment.sol\":588:608  balances[msg.sender] */\n      0x00\n        /* \".deps/remix-tests/Lab_4_assignment.sol\":597:607  msg.sender */\n      caller\n        /* \".deps/remix-tests/Lab_4_assignment.sol\":588:608  balances[msg.sender] */\n      0xffffffffffffffffffffffffffffffffffffffff\n      and\n      0xffffffffffffffffffffffffffffffffffffffff\n      and\n      dup2\n      mstore\n      0x20\n      add\n      swap1\n      dup2\n      mstore\n      0x20\n      add\n      0x00\n      keccak256\n      sload\n        /* \".deps/remix-tests/Lab_4_assignment.sol\":588:621  balances[msg.sender] >= totAmount */\n      lt\n      iszero\n        /* \".deps/remix-tests/Lab_4_assignment.sol\":580:655  require(balances[msg.sender] >= totAmount,\"Not enough balance to transfer\") */\n      tag_64\n      jumpi\n      mload(0x40)\n      0x08c379a000000000000000000000000000000000000000000000000000000000\n      dup2\n      mstore\n      0x04\n      add\n      tag_65\n      swap1\n      tag_66\n      jump\t// in\n    tag_65:\n      mload(0x40)\n      dup1\n      swap2\n      sub\n      swap1\n      revert\n    tag_64:\n        /* \".deps/remix-tests/Lab_4_assignment.sol\":2099:2116  uint256 totAmount */\n      0x00\n        /* \".deps/remix-tests/Lab_4_assignment.sol\":2124:2152  calculateTransferFee(amount) */\n      tag_68\n        /* \".deps/remix-tests/Lab_4_assignment.sol\":2145:2151  amount */\n      dup5\n        /* \".deps/remix-tests/Lab_4_assignment.sol\":2124:2144  calculateTransferFee */\n      tag_35\n        /* \".deps/remix-tests/Lab_4_assignment.sol\":2124:2152  calculateTransferFee(amount) */\n      jump\t// in\n    tag_68:\n        /* \".deps/remix-tests/Lab_4_assignment.sol\":2117:2123  amount */\n      dup5\n        /* \".deps/remix-tests/Lab_4_assignment.sol\":2117:2152  amount+calculateTransferFee(amount) */\n      tag_69\n      swap2\n      swap1\n      tag_15\n      jump\t// in\n    tag_69:\n        /* \".deps/remix-tests/Lab_4_assignment.sol\":2099:2152  uint256 totAmount=amount+calculateTransferFee(amount) */\n      swap1\n      pop\n        /* \".deps/remix-tests/Lab_4_assignment.sol\":2187:2196  totAmount */\n      dup1\n        /* \".deps/remix-tests/Lab_4_assignment.sol\":2163:2171  balances */\n      0x02\n        /* \".deps/remix-tests/Lab_4_assignment.sol\":2163:2183  balances[msg.sender] */\n      0x00\n        /* \".deps/remix-tests/Lab_4_assignment.sol\":2172:2182  msg.sender */\n      caller\n        /* \".deps/remix-tests/Lab_4_assignment.sol\":2163:2183  balances[msg.sender] */\n      0xffffffffffffffffffffffffffffffffffffffff\n      and\n      0xffffffffffffffffffffffffffffffffffffffff\n      and\n      dup2\n      mstore\n      0x20\n      add\n      swap1\n      dup2\n      mstore\n      0x20\n      add\n      0x00\n      keccak256\n      0x00\n        /* \".deps/remix-tests/Lab_4_assignment.sol\":2163:2196  balances[msg.sender] -= totAmount */\n      dup3\n      dup3\n      sload\n      tag_70\n      swap2\n      swap1\n      tag_71\n      jump\t// in\n    tag_70:\n      swap3\n      pop\n      pop\n      dup2\n      swap1\n      sstore\n      pop\n        /* \".deps/remix-tests/Lab_4_assignment.sol\":2223:2229  amount */\n      dup4\n        /* \".deps/remix-tests/Lab_4_assignment.sol\":2207:2215  balances */\n      0x02\n        /* \".deps/remix-tests/Lab_4_assignment.sol\":2207:2219  balances[to] */\n      0x00\n        /* \".deps/remix-tests/Lab_4_assignment.sol\":2216:2218  to */\n      dup8\n        /* \".deps/remix-tests/Lab_4_assignment.sol\":2207:2219  balances[to] */\n      0xffffffffffffffffffffffffffffffffffffffff\n      and\n      0xffffffffffffffffffffffffffffffffffffffff\n      and\n      dup2\n      mstore\n      0x20\n      add\n      swap1\n      dup2\n      mstore\n      0x20\n      add\n      0x00\n      keccak256\n      0x00\n        /* \".deps/remix-tests/Lab_4_assignment.sol\":2207:2229  balances[to] += amount */\n      dup3\n      dup3\n      sload\n      tag_72\n      swap2\n      swap1\n      tag_15\n      jump\t// in\n    tag_72:\n      swap3\n      pop\n      pop\n      dup2\n      swap1\n      sstore\n      pop\n        /* \".deps/remix-tests/Lab_4_assignment.sol\":2265:2267  to */\n      dup5\n        /* \".deps/remix-tests/Lab_4_assignment.sol\":2245:2275  Transfer(msg.sender,to,amount) */\n      0xffffffffffffffffffffffffffffffffffffffff\n      and\n        /* \".deps/remix-tests/Lab_4_assignment.sol\":2254:2264  msg.sender */\n      caller\n        /* \".deps/remix-tests/Lab_4_assignment.sol\":2245:2275  Transfer(msg.sender,to,amount) */\n      0xffffffffffffffffffffffffffffffffffffffff\n      and\n      0xddf252ad1be2c89b69c2b068fc378daa952ba7f163c4a11628f55a4df523b3ef\n        /* \".deps/remix-tests/Lab_4_assignment.sol\":2268:2274  amount */\n      dup7\n        /* \".deps/remix-tests/Lab_4_assignment.sol\":2245:2275  Transfer(msg.sender,to,amount) */\n      mload(0x40)\n      tag_73\n      swap2\n      swap1\n      tag_17\n      jump\t// in\n    tag_73:\n      mload(0x40)\n      dup1\n      swap2\n      sub\n      swap1\n      log3\n        /* \".deps/remix-tests/Lab_4_assignment.sol\":2088:2283  {... */\n      pop\n        /* \".deps/remix-tests/Lab_4_assignment.sol\":505:675  {... */\n      pop\n        /* \".deps/remix-tests/Lab_4_assignment.sol\":443:444  _ */\n      pop\n        /* \".deps/remix-tests/Lab_4_assignment.sol\":1984:2283  function transferToken(address to, uint256 amount) public payable onlyAdmin hasSufficientBalance(amount){... */\n      pop\n      pop\n      jump\t// out\n        /* \".deps/remix-tests/Lab_4_assignment.sol\":117:143  uint256 public totalSupply */\n    tag_29:\n      sload(0x01)\n      dup2\n      jump\t// out\n        /* \".deps/remix-tests/Lab_4_assignment.sol\":1514:1976  function calculateTransferFee(uint256 amount) public pure returns(uint256){... */\n    tag_35:\n        /* \".deps/remix-tests/Lab_4_assignment.sol\":1580:1587  uint256 */\n      0x00\n        /* \".deps/remix-tests/Lab_4_assignment.sol\":1617:1620  100 */\n      0x64\n        /* \".deps/remix-tests/Lab_4_assignment.sol\":1614:1615  1 */\n      0x01\n        /* \".deps/remix-tests/Lab_4_assignment.sol\":1607:1613  amount */\n      dup4\n        /* \".deps/remix-tests/Lab_4_assignment.sol\":1607:1615  amount*1 */\n      tag_75\n      swap2\n      swap1\n      tag_76\n      jump\t// in\n    tag_75:\n        /* \".deps/remix-tests/Lab_4_assignment.sol\":1606:1620  (amount*1)/100 */\n      tag_77\n      swap2\n      swap1\n      tag_78\n      jump\t// in\n    tag_77:\n        /* \".deps/remix-tests/Lab_4_assignment.sol\":1599:1620  return (amount*1)/100 */\n      swap1\n      pop\n        /* \".deps/remix-tests/Lab_4_assignment.sol\":1514:1976  function calculateTransferFee(uint256 amount) public pure returns(uint256){... */\n      swap2\n      swap1\n      pop\n      jump\t// out\n        /* \".deps/remix-tests/Lab_4_assignment.sol\":2291:2450  function addTokens(address to, uint256 amount) public payable  onlyAdmin{... */\n    tag_39:\n        /* \".deps/remix-tests/Lab_4_assignment.sol\":382:387  admin */\n      0x00\n      dup1\n      sload\n      swap1\n      0x0100\n      exp\n      swap1\n      div\n      0xffffffffffffffffffffffffffffffffffffffff\n      and\n        /* \".deps/remix-tests/Lab_4_assignment.sol\":370:387  msg.sender==admin */\n      0xffffffffffffffffffffffffffffffffffffffff\n      and\n        /* \".deps/remix-tests/Lab_4_assignment.sol\":370:380  msg.sender */\n      caller\n        /* \".deps/remix-tests/Lab_4_assignment.sol\":370:387  msg.sender==admin */\n      0xffffffffffffffffffffffffffffffffffffffff\n      and\n      eq\n        /* \".deps/remix-tests/Lab_4_assignment.sol\":362:432  require(msg.sender==admin,\"Not authorized! ONly admin can call this.\") */\n      tag_80\n      jumpi\n      mload(0x40)\n      0x08c379a000000000000000000000000000000000000000000000000000000000\n      dup2\n      mstore\n      0x04\n      add\n      tag_81\n      swap1\n      tag_60\n      jump\t// in\n    tag_81:\n      mload(0x40)\n      dup1\n      swap2\n      sub\n      swap1\n      revert\n    tag_80:\n        /* \".deps/remix-tests/Lab_4_assignment.sol\":2390:2396  amount */\n      dup1\n        /* \".deps/remix-tests/Lab_4_assignment.sol\":2374:2382  balances */\n      0x02\n        /* \".deps/remix-tests/Lab_4_assignment.sol\":2374:2386  balances[to] */\n      0x00\n        /* \".deps/remix-tests/Lab_4_assignment.sol\":2383:2385  to */\n      dup5\n        /* \".deps/remix-tests/Lab_4_assignment.sol\":2374:2386  balances[to] */\n      0xffffffffffffffffffffffffffffffffffffffff\n      and\n      0xffffffffffffffffffffffffffffffffffffffff\n      and\n      dup2\n      mstore\n      0x20\n      add\n      swap1\n      dup2\n      mstore\n      0x20\n      add\n      0x00\n      keccak256\n      0x00\n        /* \".deps/remix-tests/Lab_4_assignment.sol\":2374:2396  balances[to] += amount */\n      dup3\n      dup3\n      sload\n      tag_83\n      swap2\n      swap1\n      tag_15\n      jump\t// in\n    tag_83:\n      swap3\n      pop\n      pop\n      dup2\n      swap1\n      sstore\n      pop\n        /* \".deps/remix-tests/Lab_4_assignment.sol\":2432:2434  to */\n      dup2\n        /* \".deps/remix-tests/Lab_4_assignment.sol\":2412:2442  Transfer(msg.sender,to,amount) */\n      0xffffffffffffffffffffffffffffffffffffffff\n      and\n        /* \".deps/remix-tests/Lab_4_assignment.sol\":2421:2431  msg.sender */\n      caller\n        /* \".deps/remix-tests/Lab_4_assignment.sol\":2412:2442  Transfer(msg.sender,to,amount) */\n      0xffffffffffffffffffffffffffffffffffffffff\n      and\n      0xddf252ad1be2c89b69c2b068fc378daa952ba7f163c4a11628f55a4df523b3ef\n        /* \".deps/remix-tests/Lab_4_assignment.sol\":2435:2441  amount */\n      dup4\n        /* \".deps/remix-tests/Lab_4_assignment.sol\":2412:2442  Transfer(msg.sender,to,amount) */\n      mload(0x40)\n      tag_84\n      swap2\n      swap1\n      tag_17\n      jump\t// in\n    tag_84:\n      mload(0x40)\n      dup1\n      swap2\n      sub\n      swap1\n      log3\n        /* \".deps/remix-tests/Lab_4_assignment.sol\":2291:2450  function addTokens(address to, uint256 amount) public payable  onlyAdmin{... */\n      pop\n      pop\n      jump\t// out\n        /* \".deps/remix-tests/Lab_4_assignment.sol\":1414:1506  function myBalance() public view returns(uint){... */\n    tag_42:\n        /* \".deps/remix-tests/Lab_4_assignment.sol\":1455:1459  uint */\n      0x00\n        /* \".deps/remix-tests/Lab_4_assignment.sol\":1478:1486  balances */\n      0x02\n        /* \".deps/remix-tests/Lab_4_assignment.sol\":1478:1498  balances[msg.sender] */\n      0x00\n        /* \".deps/remix-tests/Lab_4_assignment.sol\":1487:1497  msg.sender */\n      caller\n        /* \".deps/remix-tests/Lab_4_assignment.sol\":1478:1498  balances[msg.sender] */\n      0xffffffffffffffffffffffffffffffffffffffff\n      and\n      0xffffffffffffffffffffffffffffffffffffffff\n      and\n      dup2\n      mstore\n      0x20\n      add\n      swap1\n      dup2\n      mstore\n      0x20\n      add\n      0x00\n      keccak256\n      sload\n        /* \".deps/remix-tests/Lab_4_assignment.sol\":1471:1498  return balances[msg.sender] */\n      swap1\n      pop\n        /* \".deps/remix-tests/Lab_4_assignment.sol\":1414:1506  function myBalance() public view returns(uint){... */\n      swap1\n      jump\t// out\n        /* \".deps/remix-tests/Lab_4_assignment.sol\":2458:2628  function deposit() external payable{... */\n    tag_45:\n        /* \".deps/remix-tests/Lab_4_assignment.sol\":2557:2566  msg.value */\n      callvalue\n        /* \".deps/remix-tests/Lab_4_assignment.sol\":2538:2546  balances */\n      0x02\n        /* \".deps/remix-tests/Lab_4_assignment.sol\":2538:2553  balances[admin] */\n      0x00\n        /* \".deps/remix-tests/Lab_4_assignment.sol\":2547:2552  admin */\n      dup1\n      0x00\n      swap1\n      sload\n      swap1\n      0x0100\n      exp\n      swap1\n      div\n      0xffffffffffffffffffffffffffffffffffffffff\n      and\n        /* \".deps/remix-tests/Lab_4_assignment.sol\":2538:2553  balances[admin] */\n      0xffffffffffffffffffffffffffffffffffffffff\n      and\n      0xffffffffffffffffffffffffffffffffffffffff\n      and\n      dup2\n      mstore\n      0x20\n      add\n      swap1\n      dup2\n      mstore\n      0x20\n      add\n      0x00\n      keccak256\n      0x00\n        /* \".deps/remix-tests/Lab_4_assignment.sol\":2538:2566  balances[admin] += msg.value */\n      dup3\n      dup3\n      sload\n      tag_87\n      swap2\n      swap1\n      tag_15\n      jump\t// in\n    tag_87:\n      swap3\n      pop\n      pop\n      dup2\n      swap1\n      sstore\n      pop\n        /* \".deps/remix-tests/Lab_4_assignment.sol\":2582:2620  Deposit(msg.sender,msg.value,msg.data) */\n      0x87de3cfd3de44d9b830a98f5554f3ff79f1fafd7b3579d113ce92d82d3def2a1\n        /* \".deps/remix-tests/Lab_4_assignment.sol\":2590:2600  msg.sender */\n      caller\n        /* \".deps/remix-tests/Lab_4_assignment.sol\":2601:2610  msg.value */\n      callvalue\n        /* \".deps/remix-tests/Lab_4_assignment.sol\":2611:2619  msg.data */\n      0x00\n      calldatasize\n        /* \".deps/remix-tests/Lab_4_assignment.sol\":2582:2620  Deposit(msg.sender,msg.value,msg.data) */\n      mload(0x40)\n      tag_88\n      swap5\n      swap4\n      swap3\n      swap2\n      swap1\n      tag_23\n      jump\t// in\n    tag_88:\n      mload(0x40)\n      dup1\n      swap2\n      sub\n      swap1\n      log1\n        /* \".deps/remix-tests/Lab_4_assignment.sol\":2458:2628  function deposit() external payable{... */\n      jump\t// out\n        /* \".deps/remix-tests/Lab_4_assignment.sol\":90:110  address public admin */\n    tag_48:\n      0x00\n      dup1\n      sload\n      swap1\n      0x0100\n      exp\n      swap1\n      div\n      0xffffffffffffffffffffffffffffffffffffffff\n      and\n      dup2\n      jump\t// out\n        /* \".deps/remix-tests/Lab_4_assignment.sol\":1298:1406  function getBalance(address account) public view returns(uint256){... */\n    tag_55:\n        /* \".deps/remix-tests/Lab_4_assignment.sol\":1355:1362  uint256 */\n      0x00\n        /* \".deps/remix-tests/Lab_4_assignment.sol\":1381:1389  balances */\n      0x02\n        /* \".deps/remix-tests/Lab_4_assignment.sol\":1381:1398  balances[account] */\n      0x00\n        /* \".deps/remix-tests/Lab_4_assignment.sol\":1390:1397  account */\n      dup4\n        /* \".deps/remix-tests/Lab_4_assignment.sol\":1381:1398  balances[account] */\n      0xffffffffffffffffffffffffffffffffffffffff\n      and\n      0xffffffffffffffffffffffffffffffffffffffff\n      and\n      dup2\n      mstore\n      0x20\n      add\n      swap1\n      dup2\n      mstore\n      0x20\n      add\n      0x00\n      keccak256\n      sload\n        /* \".deps/remix-tests/Lab_4_assignment.sol\":1374:1398  return balances[account] */\n      swap1\n      pop\n        /* \".deps/remix-tests/Lab_4_assignment.sol\":1298:1406  function getBalance(address account) public view returns(uint256){... */\n      swap2\n      swap1\n      pop\n      jump\t// out\n        /* \"#utility.yul\":7:84   */\n    tag_90:\n        /* \"#utility.yul\":44:51   */\n      0x00\n        /* \"#utility.yul\":73:78   */\n      dup2\n        /* \"#utility.yul\":62:78   */\n      swap1\n      pop\n        /* \"#utility.yul\":7:84   */\n      swap2\n      swap1\n      pop\n      jump\t// out\n        /* \"#utility.yul\":90:270   */\n    tag_91:\n        /* \"#utility.yul\":138:215   */\n      0x4e487b7100000000000000000000000000000000000000000000000000000000\n        /* \"#utility.yul\":135:136   */\n      0x00\n        /* \"#utility.yul\":128:216   */\n      mstore\n        /* \"#utility.yul\":235:239   */\n      0x11\n        /* \"#utility.yul\":232:233   */\n      0x04\n        /* \"#utility.yul\":225:240   */\n      mstore\n        /* \"#utility.yul\":259:263   */\n      0x24\n        /* \"#utility.yul\":256:257   */\n      0x00\n        /* \"#utility.yul\":249:264   */\n      revert\n        /* \"#utility.yul\":276:467   */\n    tag_15:\n        /* \"#utility.yul\":316:319   */\n      0x00\n        /* \"#utility.yul\":335:355   */\n      tag_117\n        /* \"#utility.yul\":353:354   */\n      dup3\n        /* \"#utility.yul\":335:355   */\n      tag_90\n      jump\t// in\n    tag_117:\n        /* \"#utility.yul\":330:355   */\n      swap2\n      pop\n        /* \"#utility.yul\":369:389   */\n      tag_118\n        /* \"#utility.yul\":387:388   */\n      dup4\n        /* \"#utility.yul\":369:389   */\n      tag_90\n      jump\t// in\n    tag_118:\n        /* \"#utility.yul\":364:389   */\n      swap3\n      pop\n        /* \"#utility.yul\":412:413   */\n      dup3\n        /* \"#utility.yul\":409:410   */\n      dup3\n        /* \"#utility.yul\":405:414   */\n      add\n        /* \"#utility.yul\":398:414   */\n      swap1\n      pop\n        /* \"#utility.yul\":433:436   */\n      dup1\n        /* \"#utility.yul\":430:431   */\n      dup3\n        /* \"#utility.yul\":427:437   */\n      gt\n        /* \"#utility.yul\":424:460   */\n      iszero\n      tag_119\n      jumpi\n        /* \"#utility.yul\":440:458   */\n      tag_120\n      tag_91\n      jump\t// in\n    tag_120:\n        /* \"#utility.yul\":424:460   */\n    tag_119:\n        /* \"#utility.yul\":276:467   */\n      swap3\n      swap2\n      pop\n      pop\n      jump\t// out\n        /* \"#utility.yul\":473:591   */\n    tag_92:\n        /* \"#utility.yul\":560:584   */\n      tag_122\n        /* \"#utility.yul\":578:583   */\n      dup2\n        /* \"#utility.yul\":560:584   */\n      tag_90\n      jump\t// in\n    tag_122:\n        /* \"#utility.yul\":555:558   */\n      dup3\n        /* \"#utility.yul\":548:585   */\n      mstore\n        /* \"#utility.yul\":473:591   */\n      pop\n      pop\n      jump\t// out\n        /* \"#utility.yul\":597:819   */\n    tag_17:\n        /* \"#utility.yul\":690:694   */\n      0x00\n        /* \"#utility.yul\":728:730   */\n      0x20\n        /* \"#utility.yul\":717:726   */\n      dup3\n        /* \"#utility.yul\":713:731   */\n      add\n        /* \"#utility.yul\":705:731   */\n      swap1\n      pop\n        /* \"#utility.yul\":741:812   */\n      tag_124\n        /* \"#utility.yul\":809:810   */\n      0x00\n        /* \"#utility.yul\":798:807   */\n      dup4\n        /* \"#utility.yul\":794:811   */\n      add\n        /* \"#utility.yul\":785:791   */\n      dup5\n        /* \"#utility.yul\":741:812   */\n      tag_92\n      jump\t// in\n    tag_124:\n        /* \"#utility.yul\":597:819   */\n      swap3\n      swap2\n      pop\n      pop\n      jump\t// out\n        /* \"#utility.yul\":825:951   */\n    tag_93:\n        /* \"#utility.yul\":862:869   */\n      0x00\n        /* \"#utility.yul\":902:944   */\n      0xffffffffffffffffffffffffffffffffffffffff\n        /* \"#utility.yul\":895:900   */\n      dup3\n        /* \"#utility.yul\":891:945   */\n      and\n        /* \"#utility.yul\":880:945   */\n      swap1\n      pop\n        /* \"#utility.yul\":825:951   */\n      swap2\n      swap1\n      pop\n      jump\t// out\n        /* \"#utility.yul\":957:1053   */\n    tag_94:\n        /* \"#utility.yul\":994:1001   */\n      0x00\n        /* \"#utility.yul\":1023:1047   */\n      tag_127\n        /* \"#utility.yul\":1041:1046   */\n      dup3\n        /* \"#utility.yul\":1023:1047   */\n      tag_93\n      jump\t// in\n    tag_127:\n        /* \"#utility.yul\":1012:1047   */\n      swap1\n      pop\n        /* \"#utility.yul\":957:1053   */\n      swap2\n      swap1\n      pop\n      jump\t// out\n        /* \"#utility.yul\":1059:1177   */\n    tag_95:\n        /* \"#utility.yul\":1146:1170   */\n      tag_129\n        /* \"#utility.yul\":1164:1169   */\n      dup2\n        /* \"#utility.yul\":1146:1170   */\n      tag_94\n      jump\t// in\n    tag_129:\n        /* \"#utility.yul\":1141:1144   */\n      dup3\n        /* \"#utility.yul\":1134:1171   */\n      mstore\n        /* \"#utility.yul\":1059:1177   */\n      pop\n      pop\n      jump\t// out\n        /* \"#utility.yul\":1183:1351   */\n    tag_96:\n        /* \"#utility.yul\":1266:1277   */\n      0x00\n        /* \"#utility.yul\":1300:1306   */\n      dup3\n        /* \"#utility.yul\":1295:1298   */\n      dup3\n        /* \"#utility.yul\":1288:1307   */\n      mstore\n        /* \"#utility.yul\":1340:1344   */\n      0x20\n        /* \"#utility.yul\":1335:1338   */\n      dup3\n        /* \"#utility.yul\":1331:1345   */\n      add\n        /* \"#utility.yul\":1316:1345   */\n      swap1\n      pop\n        /* \"#utility.yul\":1183:1351   */\n      swap3\n      swap2\n      pop\n      pop\n      jump\t// out\n        /* \"#utility.yul\":1357:1505   */\n    tag_97:\n        /* \"#utility.yul\":1455:1461   */\n      dup3\n        /* \"#utility.yul\":1450:1453   */\n      dup2\n        /* \"#utility.yul\":1445:1448   */\n      dup4\n        /* \"#utility.yul\":1432:1462   */\n      calldatacopy\n        /* \"#utility.yul\":1496:1497   */\n      0x00\n        /* \"#utility.yul\":1487:1493   */\n      dup4\n        /* \"#utility.yul\":1482:1485   */\n      dup4\n        /* \"#utility.yul\":1478:1494   */\n      add\n        /* \"#utility.yul\":1471:1498   */\n      mstore\n        /* \"#utility.yul\":1357:1505   */\n      pop\n      pop\n      pop\n      jump\t// out\n        /* \"#utility.yul\":1511:1613   */\n    tag_98:\n        /* \"#utility.yul\":1552:1558   */\n      0x00\n        /* \"#utility.yul\":1603:1605   */\n      0x1f\n        /* \"#utility.yul\":1599:1606   */\n      not\n        /* \"#utility.yul\":1594:1596   */\n      0x1f\n        /* \"#utility.yul\":1587:1592   */\n      dup4\n        /* \"#utility.yul\":1583:1597   */\n      add\n        /* \"#utility.yul\":1579:1607   */\n      and\n        /* \"#utility.yul\":1569:1607   */\n      swap1\n      pop\n        /* \"#utility.yul\":1511:1613   */\n      swap2\n      swap1\n      pop\n      jump\t// out\n        /* \"#utility.yul\":1641:1955   */\n    tag_99:\n        /* \"#utility.yul\":1737:1740   */\n      0x00\n        /* \"#utility.yul\":1758:1828   */\n      tag_134\n        /* \"#utility.yul\":1821:1827   */\n      dup4\n        /* \"#utility.yul\":1816:1819   */\n      dup6\n        /* \"#utility.yul\":1758:1828   */\n      tag_96\n      jump\t// in\n    tag_134:\n        /* \"#utility.yul\":1751:1828   */\n      swap4\n      pop\n        /* \"#utility.yul\":1838:1894   */\n      tag_135\n        /* \"#utility.yul\":1887:1893   */\n      dup4\n        /* \"#utility.yul\":1882:1885   */\n      dup6\n        /* \"#utility.yul\":1875:1880   */\n      dup5\n        /* \"#utility.yul\":1838:1894   */\n      tag_97\n      jump\t// in\n    tag_135:\n        /* \"#utility.yul\":1919:1948   */\n      tag_136\n        /* \"#utility.yul\":1941:1947   */\n      dup4\n        /* \"#utility.yul\":1919:1948   */\n      tag_98\n      jump\t// in\n    tag_136:\n        /* \"#utility.yul\":1914:1917   */\n      dup5\n        /* \"#utility.yul\":1910:1949   */\n      add\n        /* \"#utility.yul\":1903:1949   */\n      swap1\n      pop\n        /* \"#utility.yul\":1641:1955   */\n      swap4\n      swap3\n      pop\n      pop\n      pop\n      jump\t// out\n        /* \"#utility.yul\":1961:2510   */\n    tag_23:\n        /* \"#utility.yul\":2138:2142   */\n      0x00\n        /* \"#utility.yul\":2176:2178   */\n      0x60\n        /* \"#utility.yul\":2165:2174   */\n      dup3\n        /* \"#utility.yul\":2161:2179   */\n      add\n        /* \"#utility.yul\":2153:2179   */\n      swap1\n      pop\n        /* \"#utility.yul\":2189:2260   */\n      tag_138\n        /* \"#utility.yul\":2257:2258   */\n      0x00\n        /* \"#utility.yul\":2246:2255   */\n      dup4\n        /* \"#utility.yul\":2242:2259   */\n      add\n        /* \"#utility.yul\":2233:2239   */\n      dup8\n        /* \"#utility.yul\":2189:2260   */\n      tag_95\n      jump\t// in\n    tag_138:\n        /* \"#utility.yul\":2270:2342   */\n      tag_139\n        /* \"#utility.yul\":2338:2340   */\n      0x20\n        /* \"#utility.yul\":2327:2336   */\n      dup4\n        /* \"#utility.yul\":2323:2341   */\n      add\n        /* \"#utility.yul\":2314:2320   */\n      dup7\n        /* \"#utility.yul\":2270:2342   */\n      tag_92\n      jump\t// in\n    tag_139:\n        /* \"#utility.yul\":2389:2398   */\n      dup2\n        /* \"#utility.yul\":2383:2387   */\n      dup2\n        /* \"#utility.yul\":2379:2399   */\n      sub\n        /* \"#utility.yul\":2374:2376   */\n      0x40\n        /* \"#utility.yul\":2363:2372   */\n      dup4\n        /* \"#utility.yul\":2359:2377   */\n      add\n        /* \"#utility.yul\":2352:2400   */\n      mstore\n        /* \"#utility.yul\":2417:2503   */\n      tag_140\n        /* \"#utility.yul\":2498:2502   */\n      dup2\n        /* \"#utility.yul\":2489:2495   */\n      dup5\n        /* \"#utility.yul\":2481:2487   */\n      dup7\n        /* \"#utility.yul\":2417:2503   */\n      tag_99\n      jump\t// in\n    tag_140:\n        /* \"#utility.yul\":2409:2503   */\n      swap1\n      pop\n        /* \"#utility.yul\":1961:2510   */\n      swap6\n      swap5\n      pop\n      pop\n      pop\n      pop\n      pop\n      jump\t// out\n        /* \"#utility.yul\":2597:2714   */\n    tag_101:\n        /* \"#utility.yul\":2706:2707   */\n      0x00\n        /* \"#utility.yul\":2703:2704   */\n      dup1\n        /* \"#utility.yul\":2696:2708   */\n      revert\n        /* \"#utility.yul\":2843:2965   */\n    tag_103:\n        /* \"#utility.yul\":2916:2940   */\n      tag_145\n        /* \"#utility.yul\":2934:2939   */\n      dup2\n        /* \"#utility.yul\":2916:2940   */\n      tag_94\n      jump\t// in\n    tag_145:\n        /* \"#utility.yul\":2909:2914   */\n      dup2\n        /* \"#utility.yul\":2906:2941   */\n      eq\n        /* \"#utility.yul\":2896:2959   */\n      tag_146\n      jumpi\n        /* \"#utility.yul\":2955:2956   */\n      0x00\n        /* \"#utility.yul\":2952:2953   */\n      dup1\n        /* \"#utility.yul\":2945:2957   */\n      revert\n        /* \"#utility.yul\":2896:2959   */\n    tag_146:\n        /* \"#utility.yul\":2843:2965   */\n      pop\n      jump\t// out\n        /* \"#utility.yul\":2971:3110   */\n    tag_104:\n        /* \"#utility.yul\":3017:3022   */\n      0x00\n        /* \"#utility.yul\":3055:3061   */\n      dup2\n        /* \"#utility.yul\":3042:3062   */\n      calldataload\n        /* \"#utility.yul\":3033:3062   */\n      swap1\n      pop\n        /* \"#utility.yul\":3071:3104   */\n      tag_148\n        /* \"#utility.yul\":3098:3103   */\n      dup2\n        /* \"#utility.yul\":3071:3104   */\n      tag_103\n      jump\t// in\n    tag_148:\n        /* \"#utility.yul\":2971:3110   */\n      swap3\n      swap2\n      pop\n      pop\n      jump\t// out\n        /* \"#utility.yul\":3116:3238   */\n    tag_105:\n        /* \"#utility.yul\":3189:3213   */\n      tag_150\n        /* \"#utility.yul\":3207:3212   */\n      dup2\n        /* \"#utility.yul\":3189:3213   */\n      tag_90\n      jump\t// in\n    tag_150:\n        /* \"#utility.yul\":3182:3187   */\n      dup2\n        /* \"#utility.yul\":3179:3214   */\n      eq\n        /* \"#utility.yul\":3169:3232   */\n      tag_151\n      jumpi\n        /* \"#utility.yul\":3228:3229   */\n      0x00\n        /* \"#utility.yul\":3225:3226   */\n      dup1\n        /* \"#utility.yul\":3218:3230   */\n      revert\n        /* \"#utility.yul\":3169:3232   */\n    tag_151:\n        /* \"#utility.yul\":3116:3238   */\n      pop\n      jump\t// out\n        /* \"#utility.yul\":3244:3383   */\n    tag_106:\n        /* \"#utility.yul\":3290:3295   */\n      0x00\n        /* \"#utility.yul\":3328:3334   */\n      dup2\n        /* \"#utility.yul\":3315:3335   */\n      calldataload\n        /* \"#utility.yul\":3306:3335   */\n      swap1\n      pop\n        /* \"#utility.yul\":3344:3377   */\n      tag_153\n        /* \"#utility.yul\":3371:3376   */\n      dup2\n        /* \"#utility.yul\":3344:3377   */\n      tag_105\n      jump\t// in\n    tag_153:\n        /* \"#utility.yul\":3244:3383   */\n      swap3\n      swap2\n      pop\n      pop\n      jump\t// out\n        /* \"#utility.yul\":3389:3863   */\n    tag_26:\n        /* \"#utility.yul\":3457:3463   */\n      0x00\n        /* \"#utility.yul\":3465:3471   */\n      dup1\n        /* \"#utility.yul\":3514:3516   */\n      0x40\n        /* \"#utility.yul\":3502:3511   */\n      dup4\n        /* \"#utility.yul\":3493:3500   */\n      dup6\n        /* \"#utility.yul\":3489:3512   */\n      sub\n        /* \"#utility.yul\":3485:3517   */\n      slt\n        /* \"#utility.yul\":3482:3601   */\n      iszero\n      tag_155\n      jumpi\n        /* \"#utility.yul\":3520:3599   */\n      tag_156\n      tag_101\n      jump\t// in\n    tag_156:\n        /* \"#utility.yul\":3482:3601   */\n    tag_155:\n        /* \"#utility.yul\":3640:3641   */\n      0x00\n        /* \"#utility.yul\":3665:3718   */\n      tag_157\n        /* \"#utility.yul\":3710:3717   */\n      dup6\n        /* \"#utility.yul\":3701:3707   */\n      dup3\n        /* \"#utility.yul\":3690:3699   */\n      dup7\n        /* \"#utility.yul\":3686:3708   */\n      add\n        /* \"#utility.yul\":3665:3718   */\n      tag_104\n      jump\t// in\n    tag_157:\n        /* \"#utility.yul\":3655:3718   */\n      swap3\n      pop\n        /* \"#utility.yul\":3611:3728   */\n      pop\n        /* \"#utility.yul\":3767:3769   */\n      0x20\n        /* \"#utility.yul\":3793:3846   */\n      tag_158\n        /* \"#utility.yul\":3838:3845   */\n      dup6\n        /* \"#utility.yul\":3829:3835   */\n      dup3\n        /* \"#utility.yul\":3818:3827   */\n      dup7\n        /* \"#utility.yul\":3814:3836   */\n      add\n        /* \"#utility.yul\":3793:3846   */\n      tag_106\n      jump\t// in\n    tag_158:\n        /* \"#utility.yul\":3783:3846   */\n      swap2\n      pop\n        /* \"#utility.yul\":3738:3856   */\n      pop\n        /* \"#utility.yul\":3389:3863   */\n      swap3\n      pop\n      swap3\n      swap1\n      pop\n      jump\t// out\n        /* \"#utility.yul\":3869:4198   */\n    tag_34:\n        /* \"#utility.yul\":3928:3934   */\n      0x00\n        /* \"#utility.yul\":3977:3979   */\n      0x20\n        /* \"#utility.yul\":3965:3974   */\n      dup3\n        /* \"#utility.yul\":3956:3963   */\n      dup5\n        /* \"#utility.yul\":3952:3975   */\n      sub\n        /* \"#utility.yul\":3948:3980   */\n      slt\n        /* \"#utility.yul\":3945:4064   */\n      iszero\n      tag_160\n      jumpi\n        /* \"#utility.yul\":3983:4062   */\n      tag_161\n      tag_101\n      jump\t// in\n    tag_161:\n        /* \"#utility.yul\":3945:4064   */\n    tag_160:\n        /* \"#utility.yul\":4103:4104   */\n      0x00\n        /* \"#utility.yul\":4128:4181   */\n      tag_162\n        /* \"#utility.yul\":4173:4180   */\n      dup5\n        /* \"#utility.yul\":4164:4170   */\n      dup3\n        /* \"#utility.yul\":4153:4162   */\n      dup6\n        /* \"#utility.yul\":4149:4171   */\n      add\n        /* \"#utility.yul\":4128:4181   */\n      tag_106\n      jump\t// in\n    tag_162:\n        /* \"#utility.yul\":4118:4181   */\n      swap2\n      pop\n        /* \"#utility.yul\":4074:4191   */\n      pop\n        /* \"#utility.yul\":3869:4198   */\n      swap3\n      swap2\n      pop\n      pop\n      jump\t// out\n        /* \"#utility.yul\":4204:4426   */\n    tag_50:\n        /* \"#utility.yul\":4297:4301   */\n      0x00\n        /* \"#utility.yul\":4335:4337   */\n      0x20\n        /* \"#utility.yul\":4324:4333   */\n      dup3\n        /* \"#utility.yul\":4320:4338   */\n      add\n        /* \"#utility.yul\":4312:4338   */\n      swap1\n      pop\n        /* \"#utility.yul\":4348:4419   */\n      tag_164\n        /* \"#utility.yul\":4416:4417   */\n      0x00\n        /* \"#utility.yul\":4405:4414   */\n      dup4\n        /* \"#utility.yul\":4401:4418   */\n      add\n        /* \"#utility.yul\":4392:4398   */\n      dup5\n        /* \"#utility.yul\":4348:4419   */\n      tag_95\n      jump\t// in\n    tag_164:\n        /* \"#utility.yul\":4204:4426   */\n      swap3\n      swap2\n      pop\n      pop\n      jump\t// out\n        /* \"#utility.yul\":4432:4761   */\n    tag_54:\n        /* \"#utility.yul\":4491:4497   */\n      0x00\n        /* \"#utility.yul\":4540:4542   */\n      0x20\n        /* \"#utility.yul\":4528:4537   */\n      dup3\n        /* \"#utility.yul\":4519:4526   */\n      dup5\n        /* \"#utility.yul\":4515:4538   */\n      sub\n        /* \"#utility.yul\":4511:4543   */\n      slt\n        /* \"#utility.yul\":4508:4627   */\n      iszero\n      tag_166\n      jumpi\n        /* \"#utility.yul\":4546:4625   */\n      tag_167\n      tag_101\n      jump\t// in\n    tag_167:\n        /* \"#utility.yul\":4508:4627   */\n    tag_166:\n        /* \"#utility.yul\":4666:4667   */\n      0x00\n        /* \"#utility.yul\":4691:4744   */\n      tag_168\n        /* \"#utility.yul\":4736:4743   */\n      dup5\n        /* \"#utility.yul\":4727:4733   */\n      dup3\n        /* \"#utility.yul\":4716:4725   */\n      dup6\n        /* \"#utility.yul\":4712:4734   */\n      add\n        /* \"#utility.yul\":4691:4744   */\n      tag_104\n      jump\t// in\n    tag_168:\n        /* \"#utility.yul\":4681:4744   */\n      swap2\n      pop\n        /* \"#utility.yul\":4637:4754   */\n      pop\n        /* \"#utility.yul\":4432:4761   */\n      swap3\n      swap2\n      pop\n      pop\n      jump\t// out\n        /* \"#utility.yul\":4767:4936   */\n    tag_107:\n        /* \"#utility.yul\":4851:4862   */\n      0x00\n        /* \"#utility.yul\":4885:4891   */\n      dup3\n        /* \"#utility.yul\":4880:4883   */\n      dup3\n        /* \"#utility.yul\":4873:4892   */\n      mstore\n        /* \"#utility.yul\":4925:4929   */\n      0x20\n        /* \"#utility.yul\":4920:4923   */\n      dup3\n        /* \"#utility.yul\":4916:4930   */\n      add\n        /* \"#utility.yul\":4901:4930   */\n      swap1\n      pop\n        /* \"#utility.yul\":4767:4936   */\n      swap3\n      swap2\n      pop\n      pop\n      jump\t// out\n        /* \"#utility.yul\":4942:5170   */\n    tag_108:\n        /* \"#utility.yul\":5082:5116   */\n      0x4e6f7420617574686f72697a656421204f4e6c792061646d696e2063616e2063\n        /* \"#utility.yul\":5078:5079   */\n      0x00\n        /* \"#utility.yul\":5070:5076   */\n      dup3\n        /* \"#utility.yul\":5066:5080   */\n      add\n        /* \"#utility.yul\":5059:5117   */\n      mstore\n        /* \"#utility.yul\":5151:5162   */\n      0x616c6c20746869732e0000000000000000000000000000000000000000000000\n        /* \"#utility.yul\":5146:5148   */\n      0x20\n        /* \"#utility.yul\":5138:5144   */\n      dup3\n        /* \"#utility.yul\":5134:5149   */\n      add\n        /* \"#utility.yul\":5127:5163   */\n      mstore\n        /* \"#utility.yul\":4942:5170   */\n      pop\n      jump\t// out\n        /* \"#utility.yul\":5176:5542   */\n    tag_109:\n        /* \"#utility.yul\":5318:5321   */\n      0x00\n        /* \"#utility.yul\":5339:5406   */\n      tag_172\n        /* \"#utility.yul\":5403:5405   */\n      0x29\n        /* \"#utility.yul\":5398:5401   */\n      dup4\n        /* \"#utility.yul\":5339:5406   */\n      tag_107\n      jump\t// in\n    tag_172:\n        /* \"#utility.yul\":5332:5406   */\n      swap2\n      pop\n        /* \"#utility.yul\":5415:5508   */\n      tag_173\n        /* \"#utility.yul\":5504:5507   */\n      dup3\n        /* \"#utility.yul\":5415:5508   */\n      tag_108\n      jump\t// in\n    tag_173:\n        /* \"#utility.yul\":5533:5535   */\n      0x40\n        /* \"#utility.yul\":5528:5531   */\n      dup3\n        /* \"#utility.yul\":5524:5536   */\n      add\n        /* \"#utility.yul\":5517:5536   */\n      swap1\n      pop\n        /* \"#utility.yul\":5176:5542   */\n      swap2\n      swap1\n      pop\n      jump\t// out\n        /* \"#utility.yul\":5548:5967   */\n    tag_60:\n        /* \"#utility.yul\":5714:5718   */\n      0x00\n        /* \"#utility.yul\":5752:5754   */\n      0x20\n        /* \"#utility.yul\":5741:5750   */\n      dup3\n        /* \"#utility.yul\":5737:5755   */\n      add\n        /* \"#utility.yul\":5729:5755   */\n      swap1\n      pop\n        /* \"#utility.yul\":5801:5810   */\n      dup2\n        /* \"#utility.yul\":5795:5799   */\n      dup2\n        /* \"#utility.yul\":5791:5811   */\n      sub\n        /* \"#utility.yul\":5787:5788   */\n      0x00\n        /* \"#utility.yul\":5776:5785   */\n      dup4\n        /* \"#utility.yul\":5772:5789   */\n      add\n        /* \"#utility.yul\":5765:5812   */\n      mstore\n        /* \"#utility.yul\":5829:5960   */\n      tag_175\n        /* \"#utility.yul\":5955:5959   */\n      dup2\n        /* \"#utility.yul\":5829:5960   */\n      tag_109\n      jump\t// in\n    tag_175:\n        /* \"#utility.yul\":5821:5960   */\n      swap1\n      pop\n        /* \"#utility.yul\":5548:5967   */\n      swap2\n      swap1\n      pop\n      jump\t// out\n        /* \"#utility.yul\":5973:6153   */\n    tag_110:\n        /* \"#utility.yul\":6113:6145   */\n      0x4e6f7420656e6f7567682062616c616e636520746f207472616e736665720000\n        /* \"#utility.yul\":6109:6110   */\n      0x00\n        /* \"#utility.yul\":6101:6107   */\n      dup3\n        /* \"#utility.yul\":6097:6111   */\n      add\n        /* \"#utility.yul\":6090:6146   */\n      mstore\n        /* \"#utility.yul\":5973:6153   */\n      pop\n      jump\t// out\n        /* \"#utility.yul\":6159:6525   */\n    tag_111:\n        /* \"#utility.yul\":6301:6304   */\n      0x00\n        /* \"#utility.yul\":6322:6389   */\n      tag_178\n        /* \"#utility.yul\":6386:6388   */\n      0x1e\n        /* \"#utility.yul\":6381:6384   */\n      dup4\n        /* \"#utility.yul\":6322:6389   */\n      tag_107\n      jump\t// in\n    tag_178:\n        /* \"#utility.yul\":6315:6389   */\n      swap2\n      pop\n        /* \"#utility.yul\":6398:6491   */\n      tag_179\n        /* \"#utility.yul\":6487:6490   */\n      dup3\n        /* \"#utility.yul\":6398:6491   */\n      tag_110\n      jump\t// in\n    tag_179:\n        /* \"#utility.yul\":6516:6518   */\n      0x20\n        /* \"#utility.yul\":6511:6514   */\n      dup3\n        /* \"#utility.yul\":6507:6519   */\n      add\n        /* \"#utility.yul\":6500:6519   */\n      swap1\n      pop\n        /* \"#utility.yul\":6159:6525   */\n      swap2\n      swap1\n      pop\n      jump\t// out\n        /* \"#utility.yul\":6531:6950   */\n    tag_66:\n        /* \"#utility.yul\":6697:6701   */\n      0x00\n        /* \"#utility.yul\":6735:6737   */\n      0x20\n        /* \"#utility.yul\":6724:6733   */\n      dup3\n        /* \"#utility.yul\":6720:6738   */\n      add\n        /* \"#utility.yul\":6712:6738   */\n      swap1\n      pop\n        /* \"#utility.yul\":6784:6793   */\n      dup2\n        /* \"#utility.yul\":6778:6782   */\n      dup2\n        /* \"#utility.yul\":6774:6794   */\n      sub\n        /* \"#utility.yul\":6770:6771   */\n      0x00\n        /* \"#utility.yul\":6759:6768   */\n      dup4\n        /* \"#utility.yul\":6755:6772   */\n      add\n        /* \"#utility.yul\":6748:6795   */\n      mstore\n        /* \"#utility.yul\":6812:6943   */\n      tag_181\n        /* \"#utility.yul\":6938:6942   */\n      dup2\n        /* \"#utility.yul\":6812:6943   */\n      tag_111\n      jump\t// in\n    tag_181:\n        /* \"#utility.yul\":6804:6943   */\n      swap1\n      pop\n        /* \"#utility.yul\":6531:6950   */\n      swap2\n      swap1\n      pop\n      jump\t// out\n        /* \"#utility.yul\":6956:7150   */\n    tag_71:\n        /* \"#utility.yul\":6996:7000   */\n      0x00\n        /* \"#utility.yul\":7016:7036   */\n      tag_183\n        /* \"#utility.yul\":7034:7035   */\n      dup3\n        /* \"#utility.yul\":7016:7036   */\n      tag_90\n      jump\t// in\n    tag_183:\n        /* \"#utility.yul\":7011:7036   */\n      swap2\n      pop\n        /* \"#utility.yul\":7050:7070   */\n      tag_184\n        /* \"#utility.yul\":7068:7069   */\n      dup4\n        /* \"#utility.yul\":7050:7070   */\n      tag_90\n      jump\t// in\n    tag_184:\n        /* \"#utility.yul\":7045:7070   */\n      swap3\n      pop\n        /* \"#utility.yul\":7094:7095   */\n      dup3\n        /* \"#utility.yul\":7091:7092   */\n      dup3\n        /* \"#utility.yul\":7087:7096   */\n      sub\n        /* \"#utility.yul\":7079:7096   */\n      swap1\n      pop\n        /* \"#utility.yul\":7118:7119   */\n      dup2\n        /* \"#utility.yul\":7112:7116   */\n      dup2\n        /* \"#utility.yul\":7109:7120   */\n      gt\n        /* \"#utility.yul\":7106:7143   */\n      iszero\n      tag_185\n      jumpi\n        /* \"#utility.yul\":7123:7141   */\n      tag_186\n      tag_91\n      jump\t// in\n    tag_186:\n        /* \"#utility.yul\":7106:7143   */\n    tag_185:\n        /* \"#utility.yul\":6956:7150   */\n      swap3\n      swap2\n      pop\n      pop\n      jump\t// out\n        /* \"#utility.yul\":7156:7566   */\n    tag_76:\n        /* \"#utility.yul\":7196:7203   */\n      0x00\n        /* \"#utility.yul\":7219:7239   */\n      tag_188\n        /* \"#utility.yul\":7237:7238   */\n      dup3\n        /* \"#utility.yul\":7219:7239   */\n      tag_90\n      jump\t// in\n    tag_188:\n        /* \"#utility.yul\":7214:7239   */\n      swap2\n      pop\n        /* \"#utility.yul\":7253:7273   */\n      tag_189\n        /* \"#utility.yul\":7271:7272   */\n      dup4\n        /* \"#utility.yul\":7253:7273   */\n      tag_90\n      jump\t// in\n    tag_189:\n        /* \"#utility.yul\":7248:7273   */\n      swap3\n      pop\n        /* \"#utility.yul\":7308:7309   */\n      dup3\n        /* \"#utility.yul\":7305:7306   */\n      dup3\n        /* \"#utility.yul\":7301:7310   */\n      mul\n        /* \"#utility.yul\":7330:7360   */\n      tag_190\n        /* \"#utility.yul\":7348:7359   */\n      dup2\n        /* \"#utility.yul\":7330:7360   */\n      tag_90\n      jump\t// in\n    tag_190:\n        /* \"#utility.yul\":7319:7360   */\n      swap2\n      pop\n        /* \"#utility.yul\":7509:7510   */\n      dup3\n        /* \"#utility.yul\":7500:7507   */\n      dup3\n        /* \"#utility.yul\":7496:7511   */\n      div\n        /* \"#utility.yul\":7493:7494   */\n      dup5\n        /* \"#utility.yul\":7490:7512   */\n      eq\n        /* \"#utility.yul\":7470:7471   */\n      dup4\n        /* \"#utility.yul\":7463:7472   */\n      iszero\n        /* \"#utility.yul\":7443:7526   */\n      or\n        /* \"#utility.yul\":7420:7559   */\n      tag_191\n      jumpi\n        /* \"#utility.yul\":7539:7557   */\n      tag_192\n      tag_91\n      jump\t// in\n    tag_192:\n        /* \"#utility.yul\":7420:7559   */\n    tag_191:\n        /* \"#utility.yul\":7204:7566   */\n      pop\n        /* \"#utility.yul\":7156:7566   */\n      swap3\n      swap2\n      pop\n      pop\n      jump\t// out\n        /* \"#utility.yul\":7572:7752   */\n    tag_112:\n        /* \"#utility.yul\":7620:7697   */\n      0x4e487b7100000000000000000000000000000000000000000000000000000000\n        /* \"#utility.yul\":7617:7618   */\n      0x00\n        /* \"#utility.yul\":7610:7698   */\n      mstore\n        /* \"#utility.yul\":7717:7721   */\n      0x12\n        /* \"#utility.yul\":7714:7715   */\n      0x04\n        /* \"#utility.yul\":7707:7722   */\n      mstore\n        /* \"#utility.yul\":7741:7745   */\n      0x24\n        /* \"#utility.yul\":7738:7739   */\n      0x00\n        /* \"#utility.yul\":7731:7746   */\n      revert\n        /* \"#utility.yul\":7758:7943   */\n    tag_78:\n        /* \"#utility.yul\":7798:7799   */\n      0x00\n        /* \"#utility.yul\":7815:7835   */\n      tag_195\n        /* \"#utility.yul\":7833:7834   */\n      dup3\n        /* \"#utility.yul\":7815:7835   */\n      tag_90\n      jump\t// in\n    tag_195:\n        /* \"#utility.yul\":7810:7835   */\n      swap2\n      pop\n        /* \"#utility.yul\":7849:7869   */\n      tag_196\n        /* \"#utility.yul\":7867:7868   */\n      dup4\n        /* \"#utility.yul\":7849:7869   */\n      tag_90\n      jump\t// in\n    tag_196:\n        /* \"#utility.yul\":7844:7869   */\n      swap3\n      pop\n        /* \"#utility.yul\":7888:7889   */\n      dup3\n        /* \"#utility.yul\":7878:7913   */\n      tag_197\n      jumpi\n        /* \"#utility.yul\":7893:7911   */\n      tag_198\n      tag_112\n      jump\t// in\n    tag_198:\n        /* \"#utility.yul\":7878:7913   */\n    tag_197:\n        /* \"#utility.yul\":7935:7936   */\n      dup3\n        /* \"#utility.yul\":7932:7933   */\n      dup3\n        /* \"#utility.yul\":7928:7937   */\n      div\n        /* \"#utility.yul\":7923:7937   */\n      swap1\n      pop\n        /* \"#utility.yul\":7758:7943   */\n      swap3\n      swap2\n      pop\n      pop\n      jump\t// out\n\n    auxdata: 0xa26469706673582212207018729a2be414bc49446e615c529bdf43f9be22ad6355c253a15e3961c4611864736f6c634300081a0033\n}\n",
				"bytecode": {
					"linkReferences": {},
					"object": "6080604052348015600e575f80fd5b50335f806101000a81548173ffffffffffffffffffffffffffffffffffffffff021916908373ffffffffffffffffffffffffffffffffffffffff160217905550620f424060018190555060015460025f805f9054906101000a900473ffffffffffffffffffffffffffffffffffffffff1673ffffffffffffffffffffffffffffffffffffffff1673ffffffffffffffffffffffffffffffffffffffff1681526020019081526020015f2081905550610c7d806100c95f395ff3fe60806040526004361061007e575f3560e01c8063c9116b691161004d578063c9116b691461024c578063d0e30db014610276578063f851a44014610280578063f8b2cb4f146102aa57610146565b80631072cbea146101ae57806318160ddd146101ca57806337800bde146101f45780636039fbdb1461023057610146565b36610146573460025f805f9054906101000a900473ffffffffffffffffffffffffffffffffffffffff1673ffffffffffffffffffffffffffffffffffffffff1673ffffffffffffffffffffffffffffffffffffffff1681526020019081526020015f205f8282546100ef9190610839565b925050819055503373ffffffffffffffffffffffffffffffffffffffff167fc4955bba0e4e30736e117bdeb7e76d2a9c8e21adb9a4d7acb7818fb1c38646d03460405161013c919061087b565b60405180910390a2005b61016f5f8054906101000a900473ffffffffffffffffffffffffffffffffffffffff16346102e6565b7f20b9b3489992921b2007700aa9859d96f2e511d719c19c44fbf72becb1e356d933345f366040516101a4949392919061092d565b60405180910390a1005b6101c860048036038101906101c391906109c3565b6102e6565b005b3480156101d5575f80fd5b506101de610534565b6040516101eb919061087b565b60405180910390f35b3480156101ff575f80fd5b5061021a60048036038101906102159190610a01565b61053a565b604051610227919061087b565b60405180910390f35b61024a600480360381019061024591906109c3565b61055b565b005b348015610257575f80fd5b506102606106a4565b60405161026d919061087b565b60405180910390f35b61027e6106e8565b005b34801561028b575f80fd5b5061029461079a565b6040516102a19190610a2c565b60405180910390f35b3480156102b5575f80fd5b506102d060048036038101906102cb9190610a45565b6107bd565b6040516102dd919061087b565b60405180910390f35b5f8054906101000a900473ffffffffffffffffffffffffffffffffffffffff1673ffffffffffffffffffffffffffffffffffffffff163373ffffffffffffffffffffffffffffffffffffffff1614610373576040517f08c379a000000000000000000000000000000000000000000000000000000000815260040161036a90610af0565b60405180910390fd5b805f61037e8261053a565b826103899190610839565b90508060025f3373ffffffffffffffffffffffffffffffffffffffff1673ffffffffffffffffffffffffffffffffffffffff1681526020019081526020015f2054101561040b576040517f08c379a000000000000000000000000000000000000000000000000000000000815260040161040290610b58565b60405180910390fd5b5f6104158461053a565b846104209190610839565b90508060025f3373ffffffffffffffffffffffffffffffffffffffff1673ffffffffffffffffffffffffffffffffffffffff1681526020019081526020015f205f82825461046e9190610b76565b925050819055508360025f8773ffffffffffffffffffffffffffffffffffffffff1673ffffffffffffffffffffffffffffffffffffffff1681526020019081526020015f205f8282546104c19190610839565b925050819055508473ffffffffffffffffffffffffffffffffffffffff163373ffffffffffffffffffffffffffffffffffffffff167fddf252ad1be2c89b69c2b068fc378daa952ba7f163c4a11628f55a4df523b3ef86604051610525919061087b565b60405180910390a35050505050565b60015481565b5f606460018361054a9190610ba9565b6105549190610c17565b9050919050565b5f8054906101000a900473ffffffffffffffffffffffffffffffffffffffff1673ffffffffffffffffffffffffffffffffffffffff163373ffffffffffffffffffffffffffffffffffffffff16146105e8576040517f08c379a00000000000000000000000000000000000000000000000000000000081526004016105df90610af0565b60405180910390fd5b8060025f8473ffffffffffffffffffffffffffffffffffffffff1673ffffffffffffffffffffffffffffffffffffffff1681526020019081526020015f205f8282546106349190610839565b925050819055508173ffffffffffffffffffffffffffffffffffffffff163373ffffffffffffffffffffffffffffffffffffffff167fddf252ad1be2c89b69c2b068fc378daa952ba7f163c4a11628f55a4df523b3ef83604051610698919061087b565b60405180910390a35050565b5f60025f3373ffffffffffffffffffffffffffffffffffffffff1673ffffffffffffffffffffffffffffffffffffffff1681526020019081526020015f2054905090565b3460025f805f9054906101000a900473ffffffffffffffffffffffffffffffffffffffff1673ffffffffffffffffffffffffffffffffffffffff1673ffffffffffffffffffffffffffffffffffffffff1681526020019081526020015f205f8282546107549190610839565b925050819055507f87de3cfd3de44d9b830a98f5554f3ff79f1fafd7b3579d113ce92d82d3def2a133345f36604051610790949392919061092d565b60405180910390a1565b5f8054906101000a900473ffffffffffffffffffffffffffffffffffffffff1681565b5f60025f8373ffffffffffffffffffffffffffffffffffffffff1673ffffffffffffffffffffffffffffffffffffffff1681526020019081526020015f20549050919050565b5f819050919050565b7f4e487b71000000000000000000000000000000000000000000000000000000005f52601160045260245ffd5b5f61084382610803565b915061084e83610803565b92508282019050808211156108665761086561080c565b5b92915050565b61087581610803565b82525050565b5f60208201905061088e5f83018461086c565b92915050565b5f73ffffffffffffffffffffffffffffffffffffffff82169050919050565b5f6108bd82610894565b9050919050565b6108cd816108b3565b82525050565b5f82825260208201905092915050565b828183375f83830152505050565b5f601f19601f8301169050919050565b5f61090c83856108d3565b93506109198385846108e3565b610922836108f1565b840190509392505050565b5f6060820190506109405f8301876108c4565b61094d602083018661086c565b8181036040830152610960818486610901565b905095945050505050565b5f80fd5b610978816108b3565b8114610982575f80fd5b50565b5f813590506109938161096f565b92915050565b6109a281610803565b81146109ac575f80fd5b50565b5f813590506109bd81610999565b92915050565b5f80604083850312156109d9576109d861096b565b5b5f6109e685828601610985565b92505060206109f7858286016109af565b9150509250929050565b5f60208284031215610a1657610a1561096b565b5b5f610a23848285016109af565b91505092915050565b5f602082019050610a3f5f8301846108c4565b92915050565b5f60208284031215610a5a57610a5961096b565b5b5f610a6784828501610985565b91505092915050565b5f82825260208201905092915050565b7f4e6f7420617574686f72697a656421204f4e6c792061646d696e2063616e20635f8201527f616c6c20746869732e0000000000000000000000000000000000000000000000602082015250565b5f610ada602983610a70565b9150610ae582610a80565b604082019050919050565b5f6020820190508181035f830152610b0781610ace565b9050919050565b7f4e6f7420656e6f7567682062616c616e636520746f207472616e7366657200005f82015250565b5f610b42601e83610a70565b9150610b4d82610b0e565b602082019050919050565b5f6020820190508181035f830152610b6f81610b36565b9050919050565b5f610b8082610803565b9150610b8b83610803565b9250828203905081811115610ba357610ba261080c565b5b92915050565b5f610bb382610803565b9150610bbe83610803565b9250828202610bcc81610803565b91508282048414831517610be357610be261080c565b5b5092915050565b7f4e487b71000000000000000000000000000000000000000000000000000000005f52601260045260245ffd5b5f610c2182610803565b9150610c2c83610803565b925082610c3c57610c3b610bea565b5b82820490509291505056fea26469706673582212207018729a2be414bc49446e615c529bdf43f9be22ad6355c253a15e3961c4611864736f6c634300081a0033",
					"opcodes": "PUSH1 0x80 PUSH1 0x40 MSTORE CALLVALUE DUP1 ISZERO PUSH1 0xE JUMPI PUSH0 DUP1 REVERT JUMPDEST POP CALLER PUSH0 DUP1 PUSH2 0x100 EXP DUP2 SLOAD DUP2 PUSH20 0xFFFFFFFFFFFFFFFFFFFFFFFFFFFFFFFFFFFFFFFF MUL NOT AND SWAP1 DUP4 PUSH20 0xFFFFFFFFFFFFFFFFFFFFFFFFFFFFFFFFFFFFFFFF AND MUL OR SWAP1 SSTORE POP PUSH3 0xF4240 PUSH1 0x1 DUP2 SWAP1 SSTORE POP PUSH1 0x1 SLOAD PUSH1 0x2 PUSH0 DUP1 PUSH0 SWAP1 SLOAD SWAP1 PUSH2 0x100 EXP SWAP1 DIV PUSH20 0xFFFFFFFFFFFFFFFFFFFFFFFFFFFFFFFFFFFFFFFF AND PUSH20 0xFFFFFFFFFFFFFFFFFFFFFFFFFFFFFFFFFFFFFFFF AND PUSH20 0xFFFFFFFFFFFFFFFFFFFFFFFFFFFFFFFFFFFFFFFF AND DUP2 MSTORE PUSH1 0x20 ADD SWAP1 DUP2 MSTORE PUSH1 0x20 ADD PUSH0 KECCAK256 DUP2 SWAP1 SSTORE POP PUSH2 0xC7D DUP1 PUSH2 0xC9 PUSH0 CODECOPY PUSH0 RETURN INVALID PUSH1 0x80 PUSH1 0x40 MSTORE PUSH1 0x4 CALLDATASIZE LT PUSH2 0x7E JUMPI PUSH0 CALLDATALOAD PUSH1 0xE0 SHR DUP1 PUSH4 0xC9116B69 GT PUSH2 0x4D JUMPI DUP1 PUSH4 0xC9116B69 EQ PUSH2 0x24C JUMPI DUP1 PUSH4 0xD0E30DB0 EQ PUSH2 0x276 JUMPI DUP1 PUSH4 0xF851A440 EQ PUSH2 0x280 JUMPI DUP1 PUSH4 0xF8B2CB4F EQ PUSH2 0x2AA JUMPI PUSH2 0x146 JUMP JUMPDEST DUP1 PUSH4 0x1072CBEA EQ PUSH2 0x1AE JUMPI DUP1 PUSH4 0x18160DDD EQ PUSH2 0x1CA JUMPI DUP1 PUSH4 0x37800BDE EQ PUSH2 0x1F4 JUMPI DUP1 PUSH4 0x6039FBDB EQ PUSH2 0x230 JUMPI PUSH2 0x146 JUMP JUMPDEST CALLDATASIZE PUSH2 0x146 JUMPI CALLVALUE PUSH1 0x2 PUSH0 DUP1 PUSH0 SWAP1 SLOAD SWAP1 PUSH2 0x100 EXP SWAP1 DIV PUSH20 0xFFFFFFFFFFFFFFFFFFFFFFFFFFFFFFFFFFFFFFFF AND PUSH20 0xFFFFFFFFFFFFFFFFFFFFFFFFFFFFFFFFFFFFFFFF AND PUSH20 0xFFFFFFFFFFFFFFFFFFFFFFFFFFFFFFFFFFFFFFFF AND DUP2 MSTORE PUSH1 0x20 ADD SWAP1 DUP2 MSTORE PUSH1 0x20 ADD PUSH0 KECCAK256 PUSH0 DUP3 DUP3 SLOAD PUSH2 0xEF SWAP2 SWAP1 PUSH2 0x839 JUMP JUMPDEST SWAP3 POP POP DUP2 SWAP1 SSTORE POP CALLER PUSH20 0xFFFFFFFFFFFFFFFFFFFFFFFFFFFFFFFFFFFFFFFF AND PUSH32 0xC4955BBA0E4E30736E117BDEB7E76D2A9C8E21ADB9A4D7ACB7818FB1C38646D0 CALLVALUE PUSH1 0x40 MLOAD PUSH2 0x13C SWAP2 SWAP1 PUSH2 0x87B JUMP JUMPDEST PUSH1 0x40 MLOAD DUP1 SWAP2 SUB SWAP1 LOG2 STOP JUMPDEST PUSH2 0x16F PUSH0 DUP1 SLOAD SWAP1 PUSH2 0x100 EXP SWAP1 DIV PUSH20 0xFFFFFFFFFFFFFFFFFFFFFFFFFFFFFFFFFFFFFFFF AND CALLVALUE PUSH2 0x2E6 JUMP JUMPDEST PUSH32 0x20B9B3489992921B2007700AA9859D96F2E511D719C19C44FBF72BECB1E356D9 CALLER CALLVALUE PUSH0 CALLDATASIZE PUSH1 0x40 MLOAD PUSH2 0x1A4 SWAP5 SWAP4 SWAP3 SWAP2 SWAP1 PUSH2 0x92D JUMP JUMPDEST PUSH1 0x40 MLOAD DUP1 SWAP2 SUB SWAP1 LOG1 STOP JUMPDEST PUSH2 0x1C8 PUSH1 0x4 DUP1 CALLDATASIZE SUB DUP2 ADD SWAP1 PUSH2 0x1C3 SWAP2 SWAP1 PUSH2 0x9C3 JUMP JUMPDEST PUSH2 0x2E6 JUMP JUMPDEST STOP JUMPDEST CALLVALUE DUP1 ISZERO PUSH2 0x1D5 JUMPI PUSH0 DUP1 REVERT JUMPDEST POP PUSH2 0x1DE PUSH2 0x534 JUMP JUMPDEST PUSH1 0x40 MLOAD PUSH2 0x1EB SWAP2 SWAP1 PUSH2 0x87B JUMP JUMPDEST PUSH1 0x40 MLOAD DUP1 SWAP2 SUB SWAP1 RETURN JUMPDEST CALLVALUE DUP1 ISZERO PUSH2 0x1FF JUMPI PUSH0 DUP1 REVERT JUMPDEST POP PUSH2 0x21A PUSH1 0x4 DUP1 CALLDATASIZE SUB DUP2 ADD SWAP1 PUSH2 0x215 SWAP2 SWAP1 PUSH2 0xA01 JUMP JUMPDEST PUSH2 0x53A JUMP JUMPDEST PUSH1 0x40 MLOAD PUSH2 0x227 SWAP2 SWAP1 PUSH2 0x87B JUMP JUMPDEST PUSH1 0x40 MLOAD DUP1 SWAP2 SUB SWAP1 RETURN JUMPDEST PUSH2 0x24A PUSH1 0x4 DUP1 CALLDATASIZE SUB DUP2 ADD SWAP1 PUSH2 0x245 SWAP2 SWAP1 PUSH2 0x9C3 JUMP JUMPDEST PUSH2 0x55B JUMP JUMPDEST STOP JUMPDEST CALLVALUE DUP1 ISZERO PUSH2 0x257 JUMPI PUSH0 DUP1 REVERT JUMPDEST POP PUSH2 0x260 PUSH2 0x6A4 JUMP JUMPDEST PUSH1 0x40 MLOAD PUSH2 0x26D SWAP2 SWAP1 PUSH2 0x87B JUMP JUMPDEST PUSH1 0x40 MLOAD DUP1 SWAP2 SUB SWAP1 RETURN JUMPDEST PUSH2 0x27E PUSH2 0x6E8 JUMP JUMPDEST STOP JUMPDEST CALLVALUE DUP1 ISZERO PUSH2 0x28B JUMPI PUSH0 DUP1 REVERT JUMPDEST POP PUSH2 0x294 PUSH2 0x79A JUMP JUMPDEST PUSH1 0x40 MLOAD PUSH2 0x2A1 SWAP2 SWAP1 PUSH2 0xA2C JUMP JUMPDEST PUSH1 0x40 MLOAD DUP1 SWAP2 SUB SWAP1 RETURN JUMPDEST CALLVALUE DUP1 ISZERO PUSH2 0x2B5 JUMPI PUSH0 DUP1 REVERT JUMPDEST POP PUSH2 0x2D0 PUSH1 0x4 DUP1 CALLDATASIZE SUB DUP2 ADD SWAP1 PUSH2 0x2CB SWAP2 SWAP1 PUSH2 0xA45 JUMP JUMPDEST PUSH2 0x7BD JUMP JUMPDEST PUSH1 0x40 MLOAD PUSH2 0x2DD SWAP2 SWAP1 PUSH2 0x87B JUMP JUMPDEST PUSH1 0x40 MLOAD DUP1 SWAP2 SUB SWAP1 RETURN JUMPDEST PUSH0 DUP1 SLOAD SWAP1 PUSH2 0x100 EXP SWAP1 DIV PUSH20 0xFFFFFFFFFFFFFFFFFFFFFFFFFFFFFFFFFFFFFFFF AND PUSH20 0xFFFFFFFFFFFFFFFFFFFFFFFFFFFFFFFFFFFFFFFF AND CALLER PUSH20 0xFFFFFFFFFFFFFFFFFFFFFFFFFFFFFFFFFFFFFFFF AND EQ PUSH2 0x373 JUMPI PUSH1 0x40 MLOAD PUSH32 0x8C379A000000000000000000000000000000000000000000000000000000000 DUP2 MSTORE PUSH1 0x4 ADD PUSH2 0x36A SWAP1 PUSH2 0xAF0 JUMP JUMPDEST PUSH1 0x40 MLOAD DUP1 SWAP2 SUB SWAP1 REVERT JUMPDEST DUP1 PUSH0 PUSH2 0x37E DUP3 PUSH2 0x53A JUMP JUMPDEST DUP3 PUSH2 0x389 SWAP2 SWAP1 PUSH2 0x839 JUMP JUMPDEST SWAP1 POP DUP1 PUSH1 0x2 PUSH0 CALLER PUSH20 0xFFFFFFFFFFFFFFFFFFFFFFFFFFFFFFFFFFFFFFFF AND PUSH20 0xFFFFFFFFFFFFFFFFFFFFFFFFFFFFFFFFFFFFFFFF AND DUP2 MSTORE PUSH1 0x20 ADD SWAP1 DUP2 MSTORE PUSH1 0x20 ADD PUSH0 KECCAK256 SLOAD LT ISZERO PUSH2 0x40B JUMPI PUSH1 0x40 MLOAD PUSH32 0x8C379A000000000000000000000000000000000000000000000000000000000 DUP2 MSTORE PUSH1 0x4 ADD PUSH2 0x402 SWAP1 PUSH2 0xB58 JUMP JUMPDEST PUSH1 0x40 MLOAD DUP1 SWAP2 SUB SWAP1 REVERT JUMPDEST PUSH0 PUSH2 0x415 DUP5 PUSH2 0x53A JUMP JUMPDEST DUP5 PUSH2 0x420 SWAP2 SWAP1 PUSH2 0x839 JUMP JUMPDEST SWAP1 POP DUP1 PUSH1 0x2 PUSH0 CALLER PUSH20 0xFFFFFFFFFFFFFFFFFFFFFFFFFFFFFFFFFFFFFFFF AND PUSH20 0xFFFFFFFFFFFFFFFFFFFFFFFFFFFFFFFFFFFFFFFF AND DUP2 MSTORE PUSH1 0x20 ADD SWAP1 DUP2 MSTORE PUSH1 0x20 ADD PUSH0 KECCAK256 PUSH0 DUP3 DUP3 SLOAD PUSH2 0x46E SWAP2 SWAP1 PUSH2 0xB76 JUMP JUMPDEST SWAP3 POP POP DUP2 SWAP1 SSTORE POP DUP4 PUSH1 0x2 PUSH0 DUP8 PUSH20 0xFFFFFFFFFFFFFFFFFFFFFFFFFFFFFFFFFFFFFFFF AND PUSH20 0xFFFFFFFFFFFFFFFFFFFFFFFFFFFFFFFFFFFFFFFF AND DUP2 MSTORE PUSH1 0x20 ADD SWAP1 DUP2 MSTORE PUSH1 0x20 ADD PUSH0 KECCAK256 PUSH0 DUP3 DUP3 SLOAD PUSH2 0x4C1 SWAP2 SWAP1 PUSH2 0x839 JUMP JUMPDEST SWAP3 POP POP DUP2 SWAP1 SSTORE POP DUP5 PUSH20 0xFFFFFFFFFFFFFFFFFFFFFFFFFFFFFFFFFFFFFFFF AND CALLER PUSH20 0xFFFFFFFFFFFFFFFFFFFFFFFFFFFFFFFFFFFFFFFF AND PUSH32 0xDDF252AD1BE2C89B69C2B068FC378DAA952BA7F163C4A11628F55A4DF523B3EF DUP7 PUSH1 0x40 MLOAD PUSH2 0x525 SWAP2 SWAP1 PUSH2 0x87B JUMP JUMPDEST PUSH1 0x40 MLOAD DUP1 SWAP2 SUB SWAP1 LOG3 POP POP POP POP POP JUMP JUMPDEST PUSH1 0x1 SLOAD DUP2 JUMP JUMPDEST PUSH0 PUSH1 0x64 PUSH1 0x1 DUP4 PUSH2 0x54A SWAP2 SWAP1 PUSH2 0xBA9 JUMP JUMPDEST PUSH2 0x554 SWAP2 SWAP1 PUSH2 0xC17 JUMP JUMPDEST SWAP1 POP SWAP2 SWAP1 POP JUMP JUMPDEST PUSH0 DUP1 SLOAD SWAP1 PUSH2 0x100 EXP SWAP1 DIV PUSH20 0xFFFFFFFFFFFFFFFFFFFFFFFFFFFFFFFFFFFFFFFF AND PUSH20 0xFFFFFFFFFFFFFFFFFFFFFFFFFFFFFFFFFFFFFFFF AND CALLER PUSH20 0xFFFFFFFFFFFFFFFFFFFFFFFFFFFFFFFFFFFFFFFF AND EQ PUSH2 0x5E8 JUMPI PUSH1 0x40 MLOAD PUSH32 0x8C379A000000000000000000000000000000000000000000000000000000000 DUP2 MSTORE PUSH1 0x4 ADD PUSH2 0x5DF SWAP1 PUSH2 0xAF0 JUMP JUMPDEST PUSH1 0x40 MLOAD DUP1 SWAP2 SUB SWAP1 REVERT JUMPDEST DUP1 PUSH1 0x2 PUSH0 DUP5 PUSH20 0xFFFFFFFFFFFFFFFFFFFFFFFFFFFFFFFFFFFFFFFF AND PUSH20 0xFFFFFFFFFFFFFFFFFFFFFFFFFFFFFFFFFFFFFFFF AND DUP2 MSTORE PUSH1 0x20 ADD SWAP1 DUP2 MSTORE PUSH1 0x20 ADD PUSH0 KECCAK256 PUSH0 DUP3 DUP3 SLOAD PUSH2 0x634 SWAP2 SWAP1 PUSH2 0x839 JUMP JUMPDEST SWAP3 POP POP DUP2 SWAP1 SSTORE POP DUP2 PUSH20 0xFFFFFFFFFFFFFFFFFFFFFFFFFFFFFFFFFFFFFFFF AND CALLER PUSH20 0xFFFFFFFFFFFFFFFFFFFFFFFFFFFFFFFFFFFFFFFF AND PUSH32 0xDDF252AD1BE2C89B69C2B068FC378DAA952BA7F163C4A11628F55A4DF523B3EF DUP4 PUSH1 0x40 MLOAD PUSH2 0x698 SWAP2 SWAP1 PUSH2 0x87B JUMP JUMPDEST PUSH1 0x40 MLOAD DUP1 SWAP2 SUB SWAP1 LOG3 POP POP JUMP JUMPDEST PUSH0 PUSH1 0x2 PUSH0 CALLER PUSH20 0xFFFFFFFFFFFFFFFFFFFFFFFFFFFFFFFFFFFFFFFF AND PUSH20 0xFFFFFFFFFFFFFFFFFFFFFFFFFFFFFFFFFFFFFFFF AND DUP2 MSTORE PUSH1 0x20 ADD SWAP1 DUP2 MSTORE PUSH1 0x20 ADD PUSH0 KECCAK256 SLOAD SWAP1 POP SWAP1 JUMP JUMPDEST CALLVALUE PUSH1 0x2 PUSH0 DUP1 PUSH0 SWAP1 SLOAD SWAP1 PUSH2 0x100 EXP SWAP1 DIV PUSH20 0xFFFFFFFFFFFFFFFFFFFFFFFFFFFFFFFFFFFFFFFF AND PUSH20 0xFFFFFFFFFFFFFFFFFFFFFFFFFFFFFFFFFFFFFFFF AND PUSH20 0xFFFFFFFFFFFFFFFFFFFFFFFFFFFFFFFFFFFFFFFF AND DUP2 MSTORE PUSH1 0x20 ADD SWAP1 DUP2 MSTORE PUSH1 0x20 ADD PUSH0 KECCAK256 PUSH0 DUP3 DUP3 SLOAD PUSH2 0x754 SWAP2 SWAP1 PUSH2 0x839 JUMP JUMPDEST SWAP3 POP POP DUP2 SWAP1 SSTORE POP PUSH32 0x87DE3CFD3DE44D9B830A98F5554F3FF79F1FAFD7B3579D113CE92D82D3DEF2A1 CALLER CALLVALUE PUSH0 CALLDATASIZE PUSH1 0x40 MLOAD PUSH2 0x790 SWAP5 SWAP4 SWAP3 SWAP2 SWAP1 PUSH2 0x92D JUMP JUMPDEST PUSH1 0x40 MLOAD DUP1 SWAP2 SUB SWAP1 LOG1 JUMP JUMPDEST PUSH0 DUP1 SLOAD SWAP1 PUSH2 0x100 EXP SWAP1 DIV PUSH20 0xFFFFFFFFFFFFFFFFFFFFFFFFFFFFFFFFFFFFFFFF AND DUP2 JUMP JUMPDEST PUSH0 PUSH1 0x2 PUSH0 DUP4 PUSH20 0xFFFFFFFFFFFFFFFFFFFFFFFFFFFFFFFFFFFFFFFF AND PUSH20 0xFFFFFFFFFFFFFFFFFFFFFFFFFFFFFFFFFFFFFFFF AND DUP2 MSTORE PUSH1 0x20 ADD SWAP1 DUP2 MSTORE PUSH1 0x20 ADD PUSH0 KECCAK256 SLOAD SWAP1 POP SWAP2 SWAP1 POP JUMP JUMPDEST PUSH0 DUP2 SWAP1 POP SWAP2 SWAP1 POP JUMP JUMPDEST PUSH32 0x4E487B7100000000000000000000000000000000000000000000000000000000 PUSH0 MSTORE PUSH1 0x11 PUSH1 0x4 MSTORE PUSH1 0x24 PUSH0 REVERT JUMPDEST PUSH0 PUSH2 0x843 DUP3 PUSH2 0x803 JUMP JUMPDEST SWAP2 POP PUSH2 0x84E DUP4 PUSH2 0x803 JUMP JUMPDEST SWAP3 POP DUP3 DUP3 ADD SWAP1 POP DUP1 DUP3 GT ISZERO PUSH2 0x866 JUMPI PUSH2 0x865 PUSH2 0x80C JUMP JUMPDEST JUMPDEST SWAP3 SWAP2 POP POP JUMP JUMPDEST PUSH2 0x875 DUP2 PUSH2 0x803 JUMP JUMPDEST DUP3 MSTORE POP POP JUMP JUMPDEST PUSH0 PUSH1 0x20 DUP3 ADD SWAP1 POP PUSH2 0x88E PUSH0 DUP4 ADD DUP5 PUSH2 0x86C JUMP JUMPDEST SWAP3 SWAP2 POP POP JUMP JUMPDEST PUSH0 PUSH20 0xFFFFFFFFFFFFFFFFFFFFFFFFFFFFFFFFFFFFFFFF DUP3 AND SWAP1 POP SWAP2 SWAP1 POP JUMP JUMPDEST PUSH0 PUSH2 0x8BD DUP3 PUSH2 0x894 JUMP JUMPDEST SWAP1 POP SWAP2 SWAP1 POP JUMP JUMPDEST PUSH2 0x8CD DUP2 PUSH2 0x8B3 JUMP JUMPDEST DUP3 MSTORE POP POP JUMP JUMPDEST PUSH0 DUP3 DUP3 MSTORE PUSH1 0x20 DUP3 ADD SWAP1 POP SWAP3 SWAP2 POP POP JUMP JUMPDEST DUP3 DUP2 DUP4 CALLDATACOPY PUSH0 DUP4 DUP4 ADD MSTORE POP POP POP JUMP JUMPDEST PUSH0 PUSH1 0x1F NOT PUSH1 0x1F DUP4 ADD AND SWAP1 POP SWAP2 SWAP1 POP JUMP JUMPDEST PUSH0 PUSH2 0x90C DUP4 DUP6 PUSH2 0x8D3 JUMP JUMPDEST SWAP4 POP PUSH2 0x919 DUP4 DUP6 DUP5 PUSH2 0x8E3 JUMP JUMPDEST PUSH2 0x922 DUP4 PUSH2 0x8F1 JUMP JUMPDEST DUP5 ADD SWAP1 POP SWAP4 SWAP3 POP POP POP JUMP JUMPDEST PUSH0 PUSH1 0x60 DUP3 ADD SWAP1 POP PUSH2 0x940 PUSH0 DUP4 ADD DUP8 PUSH2 0x8C4 JUMP JUMPDEST PUSH2 0x94D PUSH1 0x20 DUP4 ADD DUP7 PUSH2 0x86C JUMP JUMPDEST DUP2 DUP2 SUB PUSH1 0x40 DUP4 ADD MSTORE PUSH2 0x960 DUP2 DUP5 DUP7 PUSH2 0x901 JUMP JUMPDEST SWAP1 POP SWAP6 SWAP5 POP POP POP POP POP JUMP JUMPDEST PUSH0 DUP1 REVERT JUMPDEST PUSH2 0x978 DUP2 PUSH2 0x8B3 JUMP JUMPDEST DUP2 EQ PUSH2 0x982 JUMPI PUSH0 DUP1 REVERT JUMPDEST POP JUMP JUMPDEST PUSH0 DUP2 CALLDATALOAD SWAP1 POP PUSH2 0x993 DUP2 PUSH2 0x96F JUMP JUMPDEST SWAP3 SWAP2 POP POP JUMP JUMPDEST PUSH2 0x9A2 DUP2 PUSH2 0x803 JUMP JUMPDEST DUP2 EQ PUSH2 0x9AC JUMPI PUSH0 DUP1 REVERT JUMPDEST POP JUMP JUMPDEST PUSH0 DUP2 CALLDATALOAD SWAP1 POP PUSH2 0x9BD DUP2 PUSH2 0x999 JUMP JUMPDEST SWAP3 SWAP2 POP POP JUMP JUMPDEST PUSH0 DUP1 PUSH1 0x40 DUP4 DUP6 SUB SLT ISZERO PUSH2 0x9D9 JUMPI PUSH2 0x9D8 PUSH2 0x96B JUMP JUMPDEST JUMPDEST PUSH0 PUSH2 0x9E6 DUP6 DUP3 DUP7 ADD PUSH2 0x985 JUMP JUMPDEST SWAP3 POP POP PUSH1 0x20 PUSH2 0x9F7 DUP6 DUP3 DUP7 ADD PUSH2 0x9AF JUMP JUMPDEST SWAP2 POP POP SWAP3 POP SWAP3 SWAP1 POP JUMP JUMPDEST PUSH0 PUSH1 0x20 DUP3 DUP5 SUB SLT ISZERO PUSH2 0xA16 JUMPI PUSH2 0xA15 PUSH2 0x96B JUMP JUMPDEST JUMPDEST PUSH0 PUSH2 0xA23 DUP5 DUP3 DUP6 ADD PUSH2 0x9AF JUMP JUMPDEST SWAP2 POP POP SWAP3 SWAP2 POP POP JUMP JUMPDEST PUSH0 PUSH1 0x20 DUP3 ADD SWAP1 POP PUSH2 0xA3F PUSH0 DUP4 ADD DUP5 PUSH2 0x8C4 JUMP JUMPDEST SWAP3 SWAP2 POP POP JUMP JUMPDEST PUSH0 PUSH1 0x20 DUP3 DUP5 SUB SLT ISZERO PUSH2 0xA5A JUMPI PUSH2 0xA59 PUSH2 0x96B JUMP JUMPDEST JUMPDEST PUSH0 PUSH2 0xA67 DUP5 DUP3 DUP6 ADD PUSH2 0x985 JUMP JUMPDEST SWAP2 POP POP SWAP3 SWAP2 POP POP JUMP JUMPDEST PUSH0 DUP3 DUP3 MSTORE PUSH1 0x20 DUP3 ADD SWAP1 POP SWAP3 SWAP2 POP POP JUMP JUMPDEST PUSH32 0x4E6F7420617574686F72697A656421204F4E6C792061646D696E2063616E2063 PUSH0 DUP3 ADD MSTORE PUSH32 0x616C6C20746869732E0000000000000000000000000000000000000000000000 PUSH1 0x20 DUP3 ADD MSTORE POP JUMP JUMPDEST PUSH0 PUSH2 0xADA PUSH1 0x29 DUP4 PUSH2 0xA70 JUMP JUMPDEST SWAP2 POP PUSH2 0xAE5 DUP3 PUSH2 0xA80 JUMP JUMPDEST PUSH1 0x40 DUP3 ADD SWAP1 POP SWAP2 SWAP1 POP JUMP JUMPDEST PUSH0 PUSH1 0x20 DUP3 ADD SWAP1 POP DUP2 DUP2 SUB PUSH0 DUP4 ADD MSTORE PUSH2 0xB07 DUP2 PUSH2 0xACE JUMP JUMPDEST SWAP1 POP SWAP2 SWAP1 POP JUMP JUMPDEST PUSH32 0x4E6F7420656E6F7567682062616C616E636520746F207472616E736665720000 PUSH0 DUP3 ADD MSTORE POP JUMP JUMPDEST PUSH0 PUSH2 0xB42 PUSH1 0x1E DUP4 PUSH2 0xA70 JUMP JUMPDEST SWAP2 POP PUSH2 0xB4D DUP3 PUSH2 0xB0E JUMP JUMPDEST PUSH1 0x20 DUP3 ADD SWAP1 POP SWAP2 SWAP1 POP JUMP JUMPDEST PUSH0 PUSH1 0x20 DUP3 ADD SWAP1 POP DUP2 DUP2 SUB PUSH0 DUP4 ADD MSTORE PUSH2 0xB6F DUP2 PUSH2 0xB36 JUMP JUMPDEST SWAP1 POP SWAP2 SWAP1 POP JUMP JUMPDEST PUSH0 PUSH2 0xB80 DUP3 PUSH2 0x803 JUMP JUMPDEST SWAP2 POP PUSH2 0xB8B DUP4 PUSH2 0x803 JUMP JUMPDEST SWAP3 POP DUP3 DUP3 SUB SWAP1 POP DUP2 DUP2 GT ISZERO PUSH2 0xBA3 JUMPI PUSH2 0xBA2 PUSH2 0x80C JUMP JUMPDEST JUMPDEST SWAP3 SWAP2 POP POP JUMP JUMPDEST PUSH0 PUSH2 0xBB3 DUP3 PUSH2 0x803 JUMP JUMPDEST SWAP2 POP PUSH2 0xBBE DUP4 PUSH2 0x803 JUMP JUMPDEST SWAP3 POP DUP3 DUP3 MUL PUSH2 0xBCC DUP2 PUSH2 0x803 JUMP JUMPDEST SWAP2 POP DUP3 DUP3 DIV DUP5 EQ DUP4 ISZERO OR PUSH2 0xBE3 JUMPI PUSH2 0xBE2 PUSH2 0x80C JUMP JUMPDEST JUMPDEST POP SWAP3 SWAP2 POP POP JUMP JUMPDEST PUSH32 0x4E487B7100000000000000000000000000000000000000000000000000000000 PUSH0 MSTORE PUSH1 0x12 PUSH1 0x4 MSTORE PUSH1 0x24 PUSH0 REVERT JUMPDEST PUSH0 PUSH2 0xC21 DUP3 PUSH2 0x803 JUMP JUMPDEST SWAP2 POP PUSH2 0xC2C DUP4 PUSH2 0x803 JUMP JUMPDEST SWAP3 POP DUP3 PUSH2 0xC3C JUMPI PUSH2 0xC3B PUSH2 0xBEA JUMP JUMPDEST JUMPDEST DUP3 DUP3 DIV SWAP1 POP SWAP3 SWAP2 POP POP JUMP INVALID LOG2 PUSH5 0x6970667358 0x22 SLT KECCAK256 PUSH17 0x18729A2BE414BC49446E615C529BDF43F9 0xBE 0x22 0xAD PUSH4 0x55C253A1 MCOPY CODECOPY PUSH2 0xC461 XOR PUSH5 0x736F6C6343 STOP ADDMOD BYTE STOP CALLER "
				},
				"gasEstimates": {
					"creation": {
						"codeDepositCost": "639400",
						"executionCost": "73484",
						"totalCost": "712884"
					},
					"external": {
						"": "infinite",
						"addTokens(address,uint256)": "infinite",
						"admin()": "2549",
						"calculateTransferFee(uint256)": "infinite",
						"deposit()": "infinite",
						"getBalance(address)": "2895",
						"myBalance()": "2519",
						"totalSupply()": "2448",
						"transferToken(address,uint256)": "infinite"
					}
				},
				"methodIdentifiers": {
					"addTokens(address,uint256)": "6039fbdb",
					"admin()": "f851a440",
					"calculateTransferFee(uint256)": "37800bde",
					"deposit()": "d0e30db0",
					"getBalance(address)": "f8b2cb4f",
					"myBalance()": "c9116b69",
					"totalSupply()": "18160ddd",
					"transferToken(address,uint256)": "1072cbea"
				}
			},
			"storageLayout": {
				"storage": [
					{
						"astId": 3,
						"contract": ".deps/remix-tests/Lab_4_assignment.sol:TokenTransfer",
						"label": "admin",
						"offset": 0,
						"slot": "0",
						"type": "t_address"
					},
					{
						"astId": 5,
						"contract": ".deps/remix-tests/Lab_4_assignment.sol:TokenTransfer",
						"label": "totalSupply",
						"offset": 0,
						"slot": "1",
						"type": "t_uint256"
					},
					{
						"astId": 9,
						"contract": ".deps/remix-tests/Lab_4_assignment.sol:TokenTransfer",
						"label": "balances",
						"offset": 0,
						"slot": "2",
						"type": "t_mapping(t_address,t_uint256)"
					}
				],
				"types": {
					"t_address": {
						"encoding": "inplace",
						"label": "address",
						"numberOfBytes": "20"
					},
					"t_mapping(t_address,t_uint256)": {
						"encoding": "mapping",
						"key": "t_address",
						"label": "mapping(address => uint256)",
						"numberOfBytes": "32",
						"value": "t_uint256"
					},
					"t_uint256": {
						"encoding": "inplace",
						"label": "uint256",
						"numberOfBytes": "32"
					}
				}
			},
			"userdoc": {
				"kind": "user",
				"methods": {},
				"version": 1
			}
		}
	}
}