{
	".deps/remix-tests/new.sol": {
		"conditional": {
			"abi": [
				{
					"inputs": [],
					"name": "incre",
					"outputs": [],
					"stateMutability": "nonpayable",
					"type": "function"
				},
				{
					"inputs": [],
					"name": "test",
					"outputs": [],
					"stateMutability": "view",
					"type": "function"
				}
			],
			"devdoc": {
				"kind": "dev",
				"methods": {},
				"version": 1
			},
			"evm": {
				"assembly": "    /* \".deps/remix-tests/new.sol\":91:287  contract conditional{... */\n  mstore(0x40, 0x80)\n    /* \".deps/remix-tests/new.sol\":125:126  0 */\n  0x00\n    /* \".deps/remix-tests/new.sol\":118:126  uint x=0 */\n  dup1\n  sstore\n    /* \".deps/remix-tests/new.sol\":91:287  contract conditional{... */\n  callvalue\n  dup1\n  iszero\n  tag_1\n  jumpi\n  0x00\n  dup1\n  revert\ntag_1:\n  pop\n  dataSize(sub_0)\n  dup1\n  dataOffset(sub_0)\n  0x00\n  codecopy\n  0x00\n  return\nstop\n\nsub_0: assembly {\n        /* \".deps/remix-tests/new.sol\":91:287  contract conditional{... */\n      mstore(0x40, 0x80)\n      callvalue\n      dup1\n      iszero\n      tag_1\n      jumpi\n      0x00\n      dup1\n      revert\n    tag_1:\n      pop\n      jumpi(tag_2, lt(calldatasize, 0x04))\n      shr(0xe0, calldataload(0x00))\n      dup1\n      0xf8a8fd6d\n      eq\n      tag_3\n      jumpi\n      dup1\n      0xfcc00319\n      eq\n      tag_4\n      jumpi\n    tag_2:\n      0x00\n      dup1\n      revert\n        /* \".deps/remix-tests/new.sol\":188:284  function test() public view{... */\n    tag_3:\n      tag_5\n      tag_6\n      jump\t// in\n    tag_5:\n      stop\n        /* \".deps/remix-tests/new.sol\":135:180  function incre() public{... */\n    tag_4:\n      tag_7\n      tag_8\n      jump\t// in\n    tag_7:\n      stop\n        /* \".deps/remix-tests/new.sol\":188:284  function test() public view{... */\n    tag_6:\n        /* \".deps/remix-tests/new.sol\":232:233  2 */\n      0x02\n        /* \".deps/remix-tests/new.sol\":229:230  x */\n      sload(0x00)\n        /* \".deps/remix-tests/new.sol\":229:233  x==2 */\n      sub\n        /* \".deps/remix-tests/new.sol\":226:277  if(x==2){... */\n      tag_10\n      jumpi\n        /* \".deps/remix-tests/new.sol\":249:263  console.log(x) */\n      tag_11\n        /* \".deps/remix-tests/new.sol\":261:262  x */\n      sload(0x00)\n        /* \".deps/remix-tests/new.sol\":249:260  console.log */\n      tag_12\n        /* \".deps/remix-tests/new.sol\":249:263  console.log(x) */\n      jump\t// in\n    tag_11:\n        /* \".deps/remix-tests/new.sol\":226:277  if(x==2){... */\n    tag_10:\n        /* \".deps/remix-tests/new.sol\":188:284  function test() public view{... */\n      jump\t// out\n        /* \".deps/remix-tests/new.sol\":135:180  function incre() public{... */\n    tag_8:\n        /* \".deps/remix-tests/new.sol\":169:170  x */\n      0x00\n      dup1\n        /* \".deps/remix-tests/new.sol\":169:172  x++ */\n      dup2\n      sload\n      dup1\n      swap3\n      swap2\n      swap1\n      tag_14\n      swap1\n      tag_15\n      jump\t// in\n    tag_14:\n      swap2\n      swap1\n      pop\n      sstore\n      pop\n        /* \".deps/remix-tests/new.sol\":135:180  function incre() public{... */\n      jump\t// out\n        /* \"hardhat/console.sol\":5949:6065  function log(uint256 p0) internal pure {... */\n    tag_12:\n        /* \"hardhat/console.sol\":5998:6058  _sendLogPayload(abi.encodeWithSignature(\"log(uint256)\", p0)) */\n      tag_17\n        /* \"hardhat/console.sol\":6054:6056  p0 */\n      dup2\n        /* \"hardhat/console.sol\":6014:6057  abi.encodeWithSignature(\"log(uint256)\", p0) */\n      add(0x24, mload(0x40))\n      tag_18\n      swap2\n      swap1\n      tag_19\n      jump\t// in\n    tag_18:\n      mload(0x40)\n      0x20\n      dup2\n      dup4\n      sub\n      sub\n      dup2\n      mstore\n      swap1\n      0x40\n      mstore\n      and(not(0xffffffffffffffffffffffffffffffffffffffffffffffffffffffff), 0xf82c50f100000000000000000000000000000000000000000000000000000000)\n      0x20\n      dup3\n      add\n      dup1\n      mload\n      0xffffffffffffffffffffffffffffffffffffffffffffffffffffffff\n      dup4\n      dup2\n      dup4\n      and\n      or\n      dup4\n      mstore\n      pop\n      pop\n      pop\n      pop\n        /* \"hardhat/console.sol\":5998:6013  _sendLogPayload */\n      tag_20\n        /* \"hardhat/console.sol\":5998:6058  _sendLogPayload(abi.encodeWithSignature(\"log(uint256)\", p0)) */\n      jump\t// in\n    tag_17:\n        /* \"hardhat/console.sol\":5949:6065  function log(uint256 p0) internal pure {... */\n      pop\n      jump\t// out\n        /* \"hardhat/console.sol\":851:980  function _sendLogPayload(bytes memory payload) internal pure {... */\n    tag_20:\n        /* \"hardhat/console.sol\":922:973  _castToPure(_sendLogPayloadImplementation)(payload) */\n      tag_22\n        /* \"hardhat/console.sol\":965:972  payload */\n      dup2\n        /* \"hardhat/console.sol\":922:964  _castToPure(_sendLogPayloadImplementation) */\n      tag_23\n        /* \"hardhat/console.sol\":934:963  _sendLogPayloadImplementation */\n      tag_24\n        /* \"hardhat/console.sol\":922:933  _castToPure */\n      tag_25\n        /* \"hardhat/console.sol\":922:964  _castToPure(_sendLogPayloadImplementation) */\n      jump\t// in\n    tag_23:\n        /* \"hardhat/console.sol\":922:973  _castToPure(_sendLogPayloadImplementation)(payload) */\n      0xffffffff\n      and\n      jump\t// in\n    tag_22:\n        /* \"hardhat/console.sol\":851:980  function _sendLogPayload(bytes memory payload) internal pure {... */\n      pop\n      jump\t// out\n        /* \"hardhat/console.sol\":180:643  function _sendLogPayloadImplementation(bytes memory payload) internal view {... */\n    tag_24:\n        /* \"hardhat/console.sol\":265:287  address consoleAddress */\n      0x00\n        /* \"hardhat/console.sol\":131:173  0x000000000000000000636F6e736F6c652e6c6f67 */\n      0x636f6e736f6c652e6c6f67\n        /* \"hardhat/console.sol\":265:305  address consoleAddress = CONSOLE_ADDRESS */\n      swap1\n      pop\n        /* \"hardhat/console.sol\":594:595  0 */\n      0x00\n        /* \"hardhat/console.sol\":571:572  0 */\n      dup1\n        /* \"hardhat/console.sol\":541:548  payload */\n      dup4\n        /* \"hardhat/console.sol\":535:549  mload(payload) */\n      mload\n        /* \"hardhat/console.sol\":510:512  32 */\n      0x20\n        /* \"hardhat/console.sol\":501:508  payload */\n      dup6\n        /* \"hardhat/console.sol\":497:513  add(payload, 32) */\n      add\n        /* \"hardhat/console.sol\":461:475  consoleAddress */\n      dup5\n        /* \"hardhat/console.sol\":434:439  gas() */\n      gas\n        /* \"hardhat/console.sol\":402:613  staticcall(... */\n      staticcall\n        /* \"hardhat/console.sol\":381:627  pop(... */\n      pop\n        /* \"hardhat/console.sol\":367:637  {... */\n      pop\n        /* \"hardhat/console.sol\":180:643  function _sendLogPayloadImplementation(bytes memory payload) internal view {... */\n      pop\n      jump\t// out\n        /* \"hardhat/console.sol\":649:845  function _castToPure(... */\n    tag_25:\n        /* \"hardhat/console.sol\":748:781  function(bytes memory) pure fnOut */\n      tag_27\n        /* \"hardhat/console.sol\":825:829  fnIn */\n      dup2\n        /* \"hardhat/console.sol\":816:829  fnOut := fnIn */\n      swap1\n      pop\n        /* \"hardhat/console.sol\":649:845  function _castToPure(... */\n      swap2\n      swap1\n      pop\n      jump\t// out\n    tag_27:\n      tag_29\n      tag_30\n      jump\t// in\n    tag_29:\n      jump\t// out\n        /* \"#utility.yul\":7:187   */\n    tag_31:\n        /* \"#utility.yul\":55:132   */\n      0x4e487b7100000000000000000000000000000000000000000000000000000000\n        /* \"#utility.yul\":52:53   */\n      0x00\n        /* \"#utility.yul\":45:133   */\n      mstore\n        /* \"#utility.yul\":152:156   */\n      0x11\n        /* \"#utility.yul\":149:150   */\n      0x04\n        /* \"#utility.yul\":142:157   */\n      mstore\n        /* \"#utility.yul\":176:180   */\n      0x24\n        /* \"#utility.yul\":173:174   */\n      0x00\n        /* \"#utility.yul\":166:181   */\n      revert\n        /* \"#utility.yul\":193:270   */\n    tag_32:\n        /* \"#utility.yul\":230:237   */\n      0x00\n        /* \"#utility.yul\":259:264   */\n      dup2\n        /* \"#utility.yul\":248:264   */\n      swap1\n      pop\n        /* \"#utility.yul\":193:270   */\n      swap2\n      swap1\n      pop\n      jump\t// out\n        /* \"#utility.yul\":276:509   */\n    tag_15:\n        /* \"#utility.yul\":315:318   */\n      0x00\n        /* \"#utility.yul\":338:362   */\n      tag_38\n        /* \"#utility.yul\":356:361   */\n      dup3\n        /* \"#utility.yul\":338:362   */\n      tag_32\n      jump\t// in\n    tag_38:\n        /* \"#utility.yul\":329:362   */\n      swap2\n      pop\n        /* \"#utility.yul\":384:450   */\n      0xffffffffffffffffffffffffffffffffffffffffffffffffffffffffffffffff\n        /* \"#utility.yul\":377:382   */\n      dup3\n        /* \"#utility.yul\":374:451   */\n      sub\n        /* \"#utility.yul\":371:474   */\n      tag_39\n      jumpi\n        /* \"#utility.yul\":454:472   */\n      tag_40\n      tag_31\n      jump\t// in\n    tag_40:\n        /* \"#utility.yul\":371:474   */\n    tag_39:\n        /* \"#utility.yul\":501:502   */\n      0x01\n        /* \"#utility.yul\":494:499   */\n      dup3\n        /* \"#utility.yul\":490:503   */\n      add\n        /* \"#utility.yul\":483:503   */\n      swap1\n      pop\n        /* \"#utility.yul\":276:509   */\n      swap2\n      swap1\n      pop\n      jump\t// out\n        /* \"#utility.yul\":515:633   */\n    tag_33:\n        /* \"#utility.yul\":602:626   */\n      tag_42\n        /* \"#utility.yul\":620:625   */\n      dup2\n        /* \"#utility.yul\":602:626   */\n      tag_32\n      jump\t// in\n    tag_42:\n        /* \"#utility.yul\":597:600   */\n      dup3\n        /* \"#utility.yul\":590:627   */\n      mstore\n        /* \"#utility.yul\":515:633   */\n      pop\n      pop\n      jump\t// out\n        /* \"#utility.yul\":639:861   */\n    tag_19:\n        /* \"#utility.yul\":732:736   */\n      0x00\n        /* \"#utility.yul\":770:772   */\n      0x20\n        /* \"#utility.yul\":759:768   */\n      dup3\n        /* \"#utility.yul\":755:773   */\n      add\n        /* \"#utility.yul\":747:773   */\n      swap1\n      pop\n        /* \"#utility.yul\":783:854   */\n      tag_44\n        /* \"#utility.yul\":851:852   */\n      0x00\n        /* \"#utility.yul\":840:849   */\n      dup4\n        /* \"#utility.yul\":836:853   */\n      add\n        /* \"#utility.yul\":827:833   */\n      dup5\n        /* \"#utility.yul\":783:854   */\n      tag_33\n      jump\t// in\n    tag_44:\n        /* \"#utility.yul\":639:861   */\n      swap3\n      swap2\n      pop\n      pop\n      jump\t// out\n        /* \"#utility.yul\":867:1047   */\n    tag_30:\n        /* \"#utility.yul\":915:992   */\n      0x4e487b7100000000000000000000000000000000000000000000000000000000\n        /* \"#utility.yul\":912:913   */\n      0x00\n        /* \"#utility.yul\":905:993   */\n      mstore\n        /* \"#utility.yul\":1012:1016   */\n      0x51\n        /* \"#utility.yul\":1009:1010   */\n      0x04\n        /* \"#utility.yul\":1002:1017   */\n      mstore\n        /* \"#utility.yul\":1036:1040   */\n      0x24\n        /* \"#utility.yul\":1033:1034   */\n      0x00\n        /* \"#utility.yul\":1026:1041   */\n      revert\n\n    auxdata: 0xa264697066735822122091baa6380dcdbb5821e1394ac50c279e0cde437045be1571d28f360768954a0464736f6c634300081a0033\n}\n",
				"bytecode": {
					"linkReferences": {},
					"object": "60806040525f80553480156011575f80fd5b506102698061001f5f395ff3fe608060405234801561000f575f80fd5b5060043610610034575f3560e01c8063f8a8fd6d14610038578063fcc0031914610042575b5f80fd5b61004061004c565b005b61004a610062565b005b60025f54036100605761005f5f5461007a565b5b565b5f8081548092919061007390610197565b9190505550565b6101108160405160240161008e91906101ed565b6040516020818303038152906040527ff82c50f1000000000000000000000000000000000000000000000000000000007bffffffffffffffffffffffffffffffffffffffffffffffffffffffff19166020820180517bffffffffffffffffffffffffffffffffffffffffffffffffffffffff8381831617835250505050610113565b50565b61012a8161012261012d61014c565b63ffffffff16565b50565b5f6a636f6e736f6c652e6c6f6790505f80835160208501845afa505050565b610157819050919050565b61015f610206565b565b7f4e487b71000000000000000000000000000000000000000000000000000000005f52601160045260245ffd5b5f819050919050565b5f6101a18261018e565b91507fffffffffffffffffffffffffffffffffffffffffffffffffffffffffffffffff82036101d3576101d2610161565b5b600182019050919050565b6101e78161018e565b82525050565b5f6020820190506102005f8301846101de565b92915050565b7f4e487b71000000000000000000000000000000000000000000000000000000005f52605160045260245ffdfea264697066735822122091baa6380dcdbb5821e1394ac50c279e0cde437045be1571d28f360768954a0464736f6c634300081a0033",
					"opcodes": "PUSH1 0x80 PUSH1 0x40 MSTORE PUSH0 DUP1 SSTORE CALLVALUE DUP1 ISZERO PUSH1 0x11 JUMPI PUSH0 DUP1 REVERT JUMPDEST POP PUSH2 0x269 DUP1 PUSH2 0x1F PUSH0 CODECOPY PUSH0 RETURN INVALID PUSH1 0x80 PUSH1 0x40 MSTORE CALLVALUE DUP1 ISZERO PUSH2 0xF JUMPI PUSH0 DUP1 REVERT JUMPDEST POP PUSH1 0x4 CALLDATASIZE LT PUSH2 0x34 JUMPI PUSH0 CALLDATALOAD PUSH1 0xE0 SHR DUP1 PUSH4 0xF8A8FD6D EQ PUSH2 0x38 JUMPI DUP1 PUSH4 0xFCC00319 EQ PUSH2 0x42 JUMPI JUMPDEST PUSH0 DUP1 REVERT JUMPDEST PUSH2 0x40 PUSH2 0x4C JUMP JUMPDEST STOP JUMPDEST PUSH2 0x4A PUSH2 0x62 JUMP JUMPDEST STOP JUMPDEST PUSH1 0x2 PUSH0 SLOAD SUB PUSH2 0x60 JUMPI PUSH2 0x5F PUSH0 SLOAD PUSH2 0x7A JUMP JUMPDEST JUMPDEST JUMP JUMPDEST PUSH0 DUP1 DUP2 SLOAD DUP1 SWAP3 SWAP2 SWAP1 PUSH2 0x73 SWAP1 PUSH2 0x197 JUMP JUMPDEST SWAP2 SWAP1 POP SSTORE POP JUMP JUMPDEST PUSH2 0x110 DUP2 PUSH1 0x40 MLOAD PUSH1 0x24 ADD PUSH2 0x8E SWAP2 SWAP1 PUSH2 0x1ED JUMP JUMPDEST PUSH1 0x40 MLOAD PUSH1 0x20 DUP2 DUP4 SUB SUB DUP2 MSTORE SWAP1 PUSH1 0x40 MSTORE PUSH32 0xF82C50F100000000000000000000000000000000000000000000000000000000 PUSH28 0xFFFFFFFFFFFFFFFFFFFFFFFFFFFFFFFFFFFFFFFFFFFFFFFFFFFFFFFF NOT AND PUSH1 0x20 DUP3 ADD DUP1 MLOAD PUSH28 0xFFFFFFFFFFFFFFFFFFFFFFFFFFFFFFFFFFFFFFFFFFFFFFFFFFFFFFFF DUP4 DUP2 DUP4 AND OR DUP4 MSTORE POP POP POP POP PUSH2 0x113 JUMP JUMPDEST POP JUMP JUMPDEST PUSH2 0x12A DUP2 PUSH2 0x122 PUSH2 0x12D PUSH2 0x14C JUMP JUMPDEST PUSH4 0xFFFFFFFF AND JUMP JUMPDEST POP JUMP JUMPDEST PUSH0 PUSH11 0x636F6E736F6C652E6C6F67 SWAP1 POP PUSH0 DUP1 DUP4 MLOAD PUSH1 0x20 DUP6 ADD DUP5 GAS STATICCALL POP POP POP JUMP JUMPDEST PUSH2 0x157 DUP2 SWAP1 POP SWAP2 SWAP1 POP JUMP JUMPDEST PUSH2 0x15F PUSH2 0x206 JUMP JUMPDEST JUMP JUMPDEST PUSH32 0x4E487B7100000000000000000000000000000000000000000000000000000000 PUSH0 MSTORE PUSH1 0x11 PUSH1 0x4 MSTORE PUSH1 0x24 PUSH0 REVERT JUMPDEST PUSH0 DUP2 SWAP1 POP SWAP2 SWAP1 POP JUMP JUMPDEST PUSH0 PUSH2 0x1A1 DUP3 PUSH2 0x18E JUMP JUMPDEST SWAP2 POP PUSH32 0xFFFFFFFFFFFFFFFFFFFFFFFFFFFFFFFFFFFFFFFFFFFFFFFFFFFFFFFFFFFFFFFF DUP3 SUB PUSH2 0x1D3 JUMPI PUSH2 0x1D2 PUSH2 0x161 JUMP JUMPDEST JUMPDEST PUSH1 0x1 DUP3 ADD SWAP1 POP SWAP2 SWAP1 POP JUMP JUMPDEST PUSH2 0x1E7 DUP2 PUSH2 0x18E JUMP JUMPDEST DUP3 MSTORE POP POP JUMP JUMPDEST PUSH0 PUSH1 0x20 DUP3 ADD SWAP1 POP PUSH2 0x200 PUSH0 DUP4 ADD DUP5 PUSH2 0x1DE JUMP JUMPDEST SWAP3 SWAP2 POP POP JUMP JUMPDEST PUSH32 0x4E487B7100000000000000000000000000000000000000000000000000000000 PUSH0 MSTORE PUSH1 0x51 PUSH1 0x4 MSTORE PUSH1 0x24 PUSH0 REVERT INVALID LOG2 PUSH5 0x6970667358 0x22 SLT KECCAK256 SWAP2 0xBA 0xA6 CODESIZE 0xD 0xCD 0xBB PC 0x21 0xE1 CODECOPY BLOBBASEFEE 0xC5 0xC 0x27 SWAP15 0xC 0xDE NUMBER PUSH17 0x45BE1571D28F360768954A0464736F6C63 NUMBER STOP ADDMOD BYTE STOP CALLER "
				},
				"gasEstimates": {
					"creation": {
						"codeDepositCost": "123400",
						"executionCost": "5174",
						"totalCost": "128574"
					},
					"external": {
						"incre()": "24497",
						"test()": "infinite"
					}
				},
				"methodIdentifiers": {
					"incre()": "fcc00319",
					"test()": "f8a8fd6d"
				}
			},
			"storageLayout": {
				"storage": [
					{
						"astId": 5,
						"contract": ".deps/remix-tests/new.sol:conditional",
						"label": "x",
						"offset": 0,
						"slot": "0",
						"type": "t_uint256"
					}
				],
				"types": {
					"t_uint256": {
						"encoding": "inplace",
						"label": "uint256",
						"numberOfBytes": "32"
					}
				}
			},
			"userdoc": {
				"kind": "user",
				"methods": {},
				"version": 1
			}
		}
	}
}