{
	"data": {
		"bytecode": {
			"linkReferences": {},
			"object": "60806040525f80553480156011575f80fd5b506109bc8061001f5f395ff3fe608060405234801561000f575f80fd5b5060043610610091575f3560e01c8063ce7738c311610064578063ce7738c314610141578063f2a8d3bf14610171578063f8a8fd6d146101a1578063fcc00319146101ab578063fcc52e97146101b557610091565b80630b95d2281461009557806314df114a146100c557806341dfd575146100e157806353e27f2a14610111575b5f80fd5b6100af60048036038101906100aa91906106b8565b6101bf565b6040516100bc91906106f2565b60405180910390f35b6100df60048036038101906100da919061073e565b610273565b005b6100fb60048036038101906100f691906106b8565b610300565b60405161010891906106f2565b60405180910390f35b61012b600480360381019061012691906106b8565b61034c565b60405161013891906106f2565b60405180910390f35b61015b600480360381019061015691906106b8565b610382565b60405161016891906106f2565b60405180910390f35b61018b600480360381019061018691906106b8565b6103c1565b60405161019891906106f2565b60405180910390f35b6101a96103f9565b005b6101b361040f565b005b6101bd610427565b005b5f80600190505f600190505b8381116101f35780826101de9190610796565b915080806101eb906107d7565b9150506101cb565b5061026a6040518060400160405280600d81526020017f466163746f7269616c206f662000000000000000000000000000000000000000815250846040518060400160405280600481526020017f20697320000000000000000000000000000000000000000000000000000000008152508461045f565b80915050919050565b5f8112156102be576102b96040518060400160405280600c81526020017f206973206e656761746976650000000000000000000000000000000000000000815250610501565b6102fd565b6102fc6040518060400160405280600c81526020017f20697320706f7369746976650000000000000000000000000000000000000000815250610501565b5b50565b5f805f90505f5b838111610339576003810315610326578082610323919061081e565b91505b8080610331906107d7565b915050610307565b506103438161059a565b80915050919050565b5f5b60011561037a57600582111561037a576103678261059a565b818061037290610851565b92505061034e565b819050919050565b5f805f5b8381116103ae578082610399919061081e565b915080806103a6906107d7565b915050610386565b6103b78261059a565b8192505050919050565b5f805b82816103d0919061081e565b905082806103dd90610851565b9350505f83116103c4576103f08161059a565b80915050919050565b60025f540361040d5761040c5f5461059a565b5b565b5f80815480929190610420906107d7565b9190505550565b5b60055f5410156104575761043c5f5461059a565b5f8081548092919061044d906107d7565b9190505550610428565b5f8081905550565b6104fb8484848460405160240161047994939291906108e8565b6040516020818303038152906040527fc67ea9d1000000000000000000000000000000000000000000000000000000007bffffffffffffffffffffffffffffffffffffffffffffffffffffffff19166020820180517bffffffffffffffffffffffffffffffffffffffffffffffffffffffff8381831617835250505050610633565b50505050565b610597816040516024016105159190610939565b6040516020818303038152906040527f41304fac000000000000000000000000000000000000000000000000000000007bffffffffffffffffffffffffffffffffffffffffffffffffffffffff19166020820180517bffffffffffffffffffffffffffffffffffffffffffffffffffffffff8381831617835250505050610633565b50565b610630816040516024016105ae91906106f2565b6040516020818303038152906040527ff82c50f1000000000000000000000000000000000000000000000000000000007bffffffffffffffffffffffffffffffffffffffffffffffffffffffff19166020820180517bffffffffffffffffffffffffffffffffffffffffffffffffffffffff8381831617835250505050610633565b50565b61064a8161064261064d61066c565b63ffffffff16565b50565b5f6a636f6e736f6c652e6c6f6790505f80835160208501845afa505050565b610677819050919050565b61067f610959565b565b5f80fd5b5f819050919050565b61069781610685565b81146106a1575f80fd5b50565b5f813590506106b28161068e565b92915050565b5f602082840312156106cd576106cc610681565b5b5f6106da848285016106a4565b91505092915050565b6106ec81610685565b82525050565b5f6020820190506107055f8301846106e3565b92915050565b5f819050919050565b61071d8161070b565b8114610727575f80fd5b50565b5f8135905061073881610714565b92915050565b5f6020828403121561075357610752610681565b5b5f6107608482850161072a565b91505092915050565b7f4e487b71000000000000000000000000000000000000000000000000000000005f52601160045260245ffd5b5f6107a082610685565b91506107ab83610685565b92508282026107b981610685565b915082820484148315176107d0576107cf610769565b5b5092915050565b5f6107e182610685565b91507fffffffffffffffffffffffffffffffffffffffffffffffffffffffffffffffff820361081357610812610769565b5b600182019050919050565b5f61082882610685565b915061083383610685565b925082820190508082111561084b5761084a610769565b5b92915050565b5f61085b82610685565b91505f820361086d5761086c610769565b5b600182039050919050565b5f81519050919050565b5f82825260208201905092915050565b8281835e5f83830152505050565b5f601f19601f8301169050919050565b5f6108ba82610878565b6108c48185610882565b93506108d4818560208601610892565b6108dd816108a0565b840191505092915050565b5f6080820190508181035f83015261090081876108b0565b905061090f60208301866106e3565b818103604083015261092181856108b0565b905061093060608301846106e3565b95945050505050565b5f6020820190508181035f83015261095181846108b0565b905092915050565b7f4e487b71000000000000000000000000000000000000000000000000000000005f52605160045260245ffdfea2646970667358221220b5150cf0e7fce4c7e81d4f3a5d6aad7d61b63e223f24e7b696642bc85bdd54c664736f6c634300081a0033",
			"opcodes": "PUSH1 0x80 PUSH1 0x40 MSTORE PUSH0 DUP1 SSTORE CALLVALUE DUP1 ISZERO PUSH1 0x11 JUMPI PUSH0 DUP1 REVERT JUMPDEST POP PUSH2 0x9BC DUP1 PUSH2 0x1F PUSH0 CODECOPY PUSH0 RETURN INVALID PUSH1 0x80 PUSH1 0x40 MSTORE CALLVALUE DUP1 ISZERO PUSH2 0xF JUMPI PUSH0 DUP1 REVERT JUMPDEST POP PUSH1 0x4 CALLDATASIZE LT PUSH2 0x91 JUMPI PUSH0 CALLDATALOAD PUSH1 0xE0 SHR DUP1 PUSH4 0xCE7738C3 GT PUSH2 0x64 JUMPI DUP1 PUSH4 0xCE7738C3 EQ PUSH2 0x141 JUMPI DUP1 PUSH4 0xF2A8D3BF EQ PUSH2 0x171 JUMPI DUP1 PUSH4 0xF8A8FD6D EQ PUSH2 0x1A1 JUMPI DUP1 PUSH4 0xFCC00319 EQ PUSH2 0x1AB JUMPI DUP1 PUSH4 0xFCC52E97 EQ PUSH2 0x1B5 JUMPI PUSH2 0x91 JUMP JUMPDEST DUP1 PUSH4 0xB95D228 EQ PUSH2 0x95 JUMPI DUP1 PUSH4 0x14DF114A EQ PUSH2 0xC5 JUMPI DUP1 PUSH4 0x41DFD575 EQ PUSH2 0xE1 JUMPI DUP1 PUSH4 0x53E27F2A EQ PUSH2 0x111 JUMPI JUMPDEST PUSH0 DUP1 REVERT JUMPDEST PUSH2 0xAF PUSH1 0x4 DUP1 CALLDATASIZE SUB DUP2 ADD SWAP1 PUSH2 0xAA SWAP2 SWAP1 PUSH2 0x6B8 JUMP JUMPDEST PUSH2 0x1BF JUMP JUMPDEST PUSH1 0x40 MLOAD PUSH2 0xBC SWAP2 SWAP1 PUSH2 0x6F2 JUMP JUMPDEST PUSH1 0x40 MLOAD DUP1 SWAP2 SUB SWAP1 RETURN JUMPDEST PUSH2 0xDF PUSH1 0x4 DUP1 CALLDATASIZE SUB DUP2 ADD SWAP1 PUSH2 0xDA SWAP2 SWAP1 PUSH2 0x73E JUMP JUMPDEST PUSH2 0x273 JUMP JUMPDEST STOP JUMPDEST PUSH2 0xFB PUSH1 0x4 DUP1 CALLDATASIZE SUB DUP2 ADD SWAP1 PUSH2 0xF6 SWAP2 SWAP1 PUSH2 0x6B8 JUMP JUMPDEST PUSH2 0x300 JUMP JUMPDEST PUSH1 0x40 MLOAD PUSH2 0x108 SWAP2 SWAP1 PUSH2 0x6F2 JUMP JUMPDEST PUSH1 0x40 MLOAD DUP1 SWAP2 SUB SWAP1 RETURN JUMPDEST PUSH2 0x12B PUSH1 0x4 DUP1 CALLDATASIZE SUB DUP2 ADD SWAP1 PUSH2 0x126 SWAP2 SWAP1 PUSH2 0x6B8 JUMP JUMPDEST PUSH2 0x34C JUMP JUMPDEST PUSH1 0x40 MLOAD PUSH2 0x138 SWAP2 SWAP1 PUSH2 0x6F2 JUMP JUMPDEST PUSH1 0x40 MLOAD DUP1 SWAP2 SUB SWAP1 RETURN JUMPDEST PUSH2 0x15B PUSH1 0x4 DUP1 CALLDATASIZE SUB DUP2 ADD SWAP1 PUSH2 0x156 SWAP2 SWAP1 PUSH2 0x6B8 JUMP JUMPDEST PUSH2 0x382 JUMP JUMPDEST PUSH1 0x40 MLOAD PUSH2 0x168 SWAP2 SWAP1 PUSH2 0x6F2 JUMP JUMPDEST PUSH1 0x40 MLOAD DUP1 SWAP2 SUB SWAP1 RETURN JUMPDEST PUSH2 0x18B PUSH1 0x4 DUP1 CALLDATASIZE SUB DUP2 ADD SWAP1 PUSH2 0x186 SWAP2 SWAP1 PUSH2 0x6B8 JUMP JUMPDEST PUSH2 0x3C1 JUMP JUMPDEST PUSH1 0x40 MLOAD PUSH2 0x198 SWAP2 SWAP1 PUSH2 0x6F2 JUMP JUMPDEST PUSH1 0x40 MLOAD DUP1 SWAP2 SUB SWAP1 RETURN JUMPDEST PUSH2 0x1A9 PUSH2 0x3F9 JUMP JUMPDEST STOP JUMPDEST PUSH2 0x1B3 PUSH2 0x40F JUMP JUMPDEST STOP JUMPDEST PUSH2 0x1BD PUSH2 0x427 JUMP JUMPDEST STOP JUMPDEST PUSH0 DUP1 PUSH1 0x1 SWAP1 POP PUSH0 PUSH1 0x1 SWAP1 POP JUMPDEST DUP4 DUP2 GT PUSH2 0x1F3 JUMPI DUP1 DUP3 PUSH2 0x1DE SWAP2 SWAP1 PUSH2 0x796 JUMP JUMPDEST SWAP2 POP DUP1 DUP1 PUSH2 0x1EB SWAP1 PUSH2 0x7D7 JUMP JUMPDEST SWAP2 POP POP PUSH2 0x1CB JUMP JUMPDEST POP PUSH2 0x26A PUSH1 0x40 MLOAD DUP1 PUSH1 0x40 ADD PUSH1 0x40 MSTORE DUP1 PUSH1 0xD DUP2 MSTORE PUSH1 0x20 ADD PUSH32 0x466163746F7269616C206F662000000000000000000000000000000000000000 DUP2 MSTORE POP DUP5 PUSH1 0x40 MLOAD DUP1 PUSH1 0x40 ADD PUSH1 0x40 MSTORE DUP1 PUSH1 0x4 DUP2 MSTORE PUSH1 0x20 ADD PUSH32 0x2069732000000000000000000000000000000000000000000000000000000000 DUP2 MSTORE POP DUP5 PUSH2 0x45F JUMP JUMPDEST DUP1 SWAP2 POP POP SWAP2 SWAP1 POP JUMP JUMPDEST PUSH0 DUP2 SLT ISZERO PUSH2 0x2BE JUMPI PUSH2 0x2B9 PUSH1 0x40 MLOAD DUP1 PUSH1 0x40 ADD PUSH1 0x40 MSTORE DUP1 PUSH1 0xC DUP2 MSTORE PUSH1 0x20 ADD PUSH32 0x206973206E656761746976650000000000000000000000000000000000000000 DUP2 MSTORE POP PUSH2 0x501 JUMP JUMPDEST PUSH2 0x2FD JUMP JUMPDEST PUSH2 0x2FC PUSH1 0x40 MLOAD DUP1 PUSH1 0x40 ADD PUSH1 0x40 MSTORE DUP1 PUSH1 0xC DUP2 MSTORE PUSH1 0x20 ADD PUSH32 0x20697320706F7369746976650000000000000000000000000000000000000000 DUP2 MSTORE POP PUSH2 0x501 JUMP JUMPDEST JUMPDEST POP JUMP JUMPDEST PUSH0 DUP1 PUSH0 SWAP1 POP PUSH0 JUMPDEST DUP4 DUP2 GT PUSH2 0x339 JUMPI PUSH1 0x3 DUP2 SUB ISZERO PUSH2 0x326 JUMPI DUP1 DUP3 PUSH2 0x323 SWAP2 SWAP1 PUSH2 0x81E JUMP JUMPDEST SWAP2 POP JUMPDEST DUP1 DUP1 PUSH2 0x331 SWAP1 PUSH2 0x7D7 JUMP JUMPDEST SWAP2 POP POP PUSH2 0x307 JUMP JUMPDEST POP PUSH2 0x343 DUP2 PUSH2 0x59A JUMP JUMPDEST DUP1 SWAP2 POP POP SWAP2 SWAP1 POP JUMP JUMPDEST PUSH0 JUMPDEST PUSH1 0x1 ISZERO PUSH2 0x37A JUMPI PUSH1 0x5 DUP3 GT ISZERO PUSH2 0x37A JUMPI PUSH2 0x367 DUP3 PUSH2 0x59A JUMP JUMPDEST DUP2 DUP1 PUSH2 0x372 SWAP1 PUSH2 0x851 JUMP JUMPDEST SWAP3 POP POP PUSH2 0x34E JUMP JUMPDEST DUP2 SWAP1 POP SWAP2 SWAP1 POP JUMP JUMPDEST PUSH0 DUP1 PUSH0 JUMPDEST DUP4 DUP2 GT PUSH2 0x3AE JUMPI DUP1 DUP3 PUSH2 0x399 SWAP2 SWAP1 PUSH2 0x81E JUMP JUMPDEST SWAP2 POP DUP1 DUP1 PUSH2 0x3A6 SWAP1 PUSH2 0x7D7 JUMP JUMPDEST SWAP2 POP POP PUSH2 0x386 JUMP JUMPDEST PUSH2 0x3B7 DUP3 PUSH2 0x59A JUMP JUMPDEST DUP2 SWAP3 POP POP POP SWAP2 SWAP1 POP JUMP JUMPDEST PUSH0 DUP1 JUMPDEST DUP3 DUP2 PUSH2 0x3D0 SWAP2 SWAP1 PUSH2 0x81E JUMP JUMPDEST SWAP1 POP DUP3 DUP1 PUSH2 0x3DD SWAP1 PUSH2 0x851 JUMP JUMPDEST SWAP4 POP POP PUSH0 DUP4 GT PUSH2 0x3C4 JUMPI PUSH2 0x3F0 DUP2 PUSH2 0x59A JUMP JUMPDEST DUP1 SWAP2 POP POP SWAP2 SWAP1 POP JUMP JUMPDEST PUSH1 0x2 PUSH0 SLOAD SUB PUSH2 0x40D JUMPI PUSH2 0x40C PUSH0 SLOAD PUSH2 0x59A JUMP JUMPDEST JUMPDEST JUMP JUMPDEST PUSH0 DUP1 DUP2 SLOAD DUP1 SWAP3 SWAP2 SWAP1 PUSH2 0x420 SWAP1 PUSH2 0x7D7 JUMP JUMPDEST SWAP2 SWAP1 POP SSTORE POP JUMP JUMPDEST JUMPDEST PUSH1 0x5 PUSH0 SLOAD LT ISZERO PUSH2 0x457 JUMPI PUSH2 0x43C PUSH0 SLOAD PUSH2 0x59A JUMP JUMPDEST PUSH0 DUP1 DUP2 SLOAD DUP1 SWAP3 SWAP2 SWAP1 PUSH2 0x44D SWAP1 PUSH2 0x7D7 JUMP JUMPDEST SWAP2 SWAP1 POP SSTORE POP PUSH2 0x428 JUMP JUMPDEST PUSH0 DUP1 DUP2 SWAP1 SSTORE POP JUMP JUMPDEST PUSH2 0x4FB DUP5 DUP5 DUP5 DUP5 PUSH1 0x40 MLOAD PUSH1 0x24 ADD PUSH2 0x479 SWAP5 SWAP4 SWAP3 SWAP2 SWAP1 PUSH2 0x8E8 JUMP JUMPDEST PUSH1 0x40 MLOAD PUSH1 0x20 DUP2 DUP4 SUB SUB DUP2 MSTORE SWAP1 PUSH1 0x40 MSTORE PUSH32 0xC67EA9D100000000000000000000000000000000000000000000000000000000 PUSH28 0xFFFFFFFFFFFFFFFFFFFFFFFFFFFFFFFFFFFFFFFFFFFFFFFFFFFFFFFF NOT AND PUSH1 0x20 DUP3 ADD DUP1 MLOAD PUSH28 0xFFFFFFFFFFFFFFFFFFFFFFFFFFFFFFFFFFFFFFFFFFFFFFFFFFFFFFFF DUP4 DUP2 DUP4 AND OR DUP4 MSTORE POP POP POP POP PUSH2 0x633 JUMP JUMPDEST POP POP POP POP JUMP JUMPDEST PUSH2 0x597 DUP2 PUSH1 0x40 MLOAD PUSH1 0x24 ADD PUSH2 0x515 SWAP2 SWAP1 PUSH2 0x939 JUMP JUMPDEST PUSH1 0x40 MLOAD PUSH1 0x20 DUP2 DUP4 SUB SUB DUP2 MSTORE SWAP1 PUSH1 0x40 MSTORE PUSH32 0x41304FAC00000000000000000000000000000000000000000000000000000000 PUSH28 0xFFFFFFFFFFFFFFFFFFFFFFFFFFFFFFFFFFFFFFFFFFFFFFFFFFFFFFFF NOT AND PUSH1 0x20 DUP3 ADD DUP1 MLOAD PUSH28 0xFFFFFFFFFFFFFFFFFFFFFFFFFFFFFFFFFFFFFFFFFFFFFFFFFFFFFFFF DUP4 DUP2 DUP4 AND OR DUP4 MSTORE POP POP POP POP PUSH2 0x633 JUMP JUMPDEST POP JUMP JUMPDEST PUSH2 0x630 DUP2 PUSH1 0x40 MLOAD PUSH1 0x24 ADD PUSH2 0x5AE SWAP2 SWAP1 PUSH2 0x6F2 JUMP JUMPDEST PUSH1 0x40 MLOAD PUSH1 0x20 DUP2 DUP4 SUB SUB DUP2 MSTORE SWAP1 PUSH1 0x40 MSTORE PUSH32 0xF82C50F100000000000000000000000000000000000000000000000000000000 PUSH28 0xFFFFFFFFFFFFFFFFFFFFFFFFFFFFFFFFFFFFFFFFFFFFFFFFFFFFFFFF NOT AND PUSH1 0x20 DUP3 ADD DUP1 MLOAD PUSH28 0xFFFFFFFFFFFFFFFFFFFFFFFFFFFFFFFFFFFFFFFFFFFFFFFFFFFFFFFF DUP4 DUP2 DUP4 AND OR DUP4 MSTORE POP POP POP POP PUSH2 0x633 JUMP JUMPDEST POP JUMP JUMPDEST PUSH2 0x64A DUP2 PUSH2 0x642 PUSH2 0x64D PUSH2 0x66C JUMP JUMPDEST PUSH4 0xFFFFFFFF AND JUMP JUMPDEST POP JUMP JUMPDEST PUSH0 PUSH11 0x636F6E736F6C652E6C6F67 SWAP1 POP PUSH0 DUP1 DUP4 MLOAD PUSH1 0x20 DUP6 ADD DUP5 GAS STATICCALL POP POP POP JUMP JUMPDEST PUSH2 0x677 DUP2 SWAP1 POP SWAP2 SWAP1 POP JUMP JUMPDEST PUSH2 0x67F PUSH2 0x959 JUMP JUMPDEST JUMP JUMPDEST PUSH0 DUP1 REVERT JUMPDEST PUSH0 DUP2 SWAP1 POP SWAP2 SWAP1 POP JUMP JUMPDEST PUSH2 0x697 DUP2 PUSH2 0x685 JUMP JUMPDEST DUP2 EQ PUSH2 0x6A1 JUMPI PUSH0 DUP1 REVERT JUMPDEST POP JUMP JUMPDEST PUSH0 DUP2 CALLDATALOAD SWAP1 POP PUSH2 0x6B2 DUP2 PUSH2 0x68E JUMP JUMPDEST SWAP3 SWAP2 POP POP JUMP JUMPDEST PUSH0 PUSH1 0x20 DUP3 DUP5 SUB SLT ISZERO PUSH2 0x6CD JUMPI PUSH2 0x6CC PUSH2 0x681 JUMP JUMPDEST JUMPDEST PUSH0 PUSH2 0x6DA DUP5 DUP3 DUP6 ADD PUSH2 0x6A4 JUMP JUMPDEST SWAP2 POP POP SWAP3 SWAP2 POP POP JUMP JUMPDEST PUSH2 0x6EC DUP2 PUSH2 0x685 JUMP JUMPDEST DUP3 MSTORE POP POP JUMP JUMPDEST PUSH0 PUSH1 0x20 DUP3 ADD SWAP1 POP PUSH2 0x705 PUSH0 DUP4 ADD DUP5 PUSH2 0x6E3 JUMP JUMPDEST SWAP3 SWAP2 POP POP JUMP JUMPDEST PUSH0 DUP2 SWAP1 POP SWAP2 SWAP1 POP JUMP JUMPDEST PUSH2 0x71D DUP2 PUSH2 0x70B JUMP JUMPDEST DUP2 EQ PUSH2 0x727 JUMPI PUSH0 DUP1 REVERT JUMPDEST POP JUMP JUMPDEST PUSH0 DUP2 CALLDATALOAD SWAP1 POP PUSH2 0x738 DUP2 PUSH2 0x714 JUMP JUMPDEST SWAP3 SWAP2 POP POP JUMP JUMPDEST PUSH0 PUSH1 0x20 DUP3 DUP5 SUB SLT ISZERO PUSH2 0x753 JUMPI PUSH2 0x752 PUSH2 0x681 JUMP JUMPDEST JUMPDEST PUSH0 PUSH2 0x760 DUP5 DUP3 DUP6 ADD PUSH2 0x72A JUMP JUMPDEST SWAP2 POP POP SWAP3 SWAP2 POP POP JUMP JUMPDEST PUSH32 0x4E487B7100000000000000000000000000000000000000000000000000000000 PUSH0 MSTORE PUSH1 0x11 PUSH1 0x4 MSTORE PUSH1 0x24 PUSH0 REVERT JUMPDEST PUSH0 PUSH2 0x7A0 DUP3 PUSH2 0x685 JUMP JUMPDEST SWAP2 POP PUSH2 0x7AB DUP4 PUSH2 0x685 JUMP JUMPDEST SWAP3 POP DUP3 DUP3 MUL PUSH2 0x7B9 DUP2 PUSH2 0x685 JUMP JUMPDEST SWAP2 POP DUP3 DUP3 DIV DUP5 EQ DUP4 ISZERO OR PUSH2 0x7D0 JUMPI PUSH2 0x7CF PUSH2 0x769 JUMP JUMPDEST JUMPDEST POP SWAP3 SWAP2 POP POP JUMP JUMPDEST PUSH0 PUSH2 0x7E1 DUP3 PUSH2 0x685 JUMP JUMPDEST SWAP2 POP PUSH32 0xFFFFFFFFFFFFFFFFFFFFFFFFFFFFFFFFFFFFFFFFFFFFFFFFFFFFFFFFFFFFFFFF DUP3 SUB PUSH2 0x813 JUMPI PUSH2 0x812 PUSH2 0x769 JUMP JUMPDEST JUMPDEST PUSH1 0x1 DUP3 ADD SWAP1 POP SWAP2 SWAP1 POP JUMP JUMPDEST PUSH0 PUSH2 0x828 DUP3 PUSH2 0x685 JUMP JUMPDEST SWAP2 POP PUSH2 0x833 DUP4 PUSH2 0x685 JUMP JUMPDEST SWAP3 POP DUP3 DUP3 ADD SWAP1 POP DUP1 DUP3 GT ISZERO PUSH2 0x84B JUMPI PUSH2 0x84A PUSH2 0x769 JUMP JUMPDEST JUMPDEST SWAP3 SWAP2 POP POP JUMP JUMPDEST PUSH0 PUSH2 0x85B DUP3 PUSH2 0x685 JUMP JUMPDEST SWAP2 POP PUSH0 DUP3 SUB PUSH2 0x86D JUMPI PUSH2 0x86C PUSH2 0x769 JUMP JUMPDEST JUMPDEST PUSH1 0x1 DUP3 SUB SWAP1 POP SWAP2 SWAP1 POP JUMP JUMPDEST PUSH0 DUP2 MLOAD SWAP1 POP SWAP2 SWAP1 POP JUMP JUMPDEST PUSH0 DUP3 DUP3 MSTORE PUSH1 0x20 DUP3 ADD SWAP1 POP SWAP3 SWAP2 POP POP JUMP JUMPDEST DUP3 DUP2 DUP4 MCOPY PUSH0 DUP4 DUP4 ADD MSTORE POP POP POP JUMP JUMPDEST PUSH0 PUSH1 0x1F NOT PUSH1 0x1F DUP4 ADD AND SWAP1 POP SWAP2 SWAP1 POP JUMP JUMPDEST PUSH0 PUSH2 0x8BA DUP3 PUSH2 0x878 JUMP JUMPDEST PUSH2 0x8C4 DUP2 DUP6 PUSH2 0x882 JUMP JUMPDEST SWAP4 POP PUSH2 0x8D4 DUP2 DUP6 PUSH1 0x20 DUP7 ADD PUSH2 0x892 JUMP JUMPDEST PUSH2 0x8DD DUP2 PUSH2 0x8A0 JUMP JUMPDEST DUP5 ADD SWAP2 POP POP SWAP3 SWAP2 POP POP JUMP JUMPDEST PUSH0 PUSH1 0x80 DUP3 ADD SWAP1 POP DUP2 DUP2 SUB PUSH0 DUP4 ADD MSTORE PUSH2 0x900 DUP2 DUP8 PUSH2 0x8B0 JUMP JUMPDEST SWAP1 POP PUSH2 0x90F PUSH1 0x20 DUP4 ADD DUP7 PUSH2 0x6E3 JUMP JUMPDEST DUP2 DUP2 SUB PUSH1 0x40 DUP4 ADD MSTORE PUSH2 0x921 DUP2 DUP6 PUSH2 0x8B0 JUMP JUMPDEST SWAP1 POP PUSH2 0x930 PUSH1 0x60 DUP4 ADD DUP5 PUSH2 0x6E3 JUMP JUMPDEST SWAP6 SWAP5 POP POP POP POP POP JUMP JUMPDEST PUSH0 PUSH1 0x20 DUP3 ADD SWAP1 POP DUP2 DUP2 SUB PUSH0 DUP4 ADD MSTORE PUSH2 0x951 DUP2 DUP5 PUSH2 0x8B0 JUMP JUMPDEST SWAP1 POP SWAP3 SWAP2 POP POP JUMP JUMPDEST PUSH32 0x4E487B7100000000000000000000000000000000000000000000000000000000 PUSH0 MSTORE PUSH1 0x51 PUSH1 0x4 MSTORE PUSH1 0x24 PUSH0 REVERT INVALID LOG2 PUSH5 0x6970667358 0x22 SLT KECCAK256 0xB5 ISZERO 0xC CREATE 0xE7 0xFC 0xE4 0xC7 0xE8 SAR 0x4F GASPRICE TSTORE PUSH11 0xAD7D61B63E223F24E7B696 PUSH5 0x2BC85BDD54 0xC6 PUSH5 0x736F6C6343 STOP ADDMOD BYTE STOP CALLER "
		},
		"gasEstimates": {
			"creation": {
				"codeDepositCost": "498400",
				"executionCost": "5533",
				"totalCost": "503933"
			},
			"external": {
				"Natural()": "infinite",
				"fact(uint256)": "infinite",
				"incre()": "24563",
				"isPositive(int256)": "infinite",
				"recSum(uint256)": "infinite",
				"stopAt5(uint256)": "infinite",
				"sumBackwards(uint256)": "infinite",
				"sumExcept3(uint256)": "infinite",
				"test()": "infinite"
			}
		},
		"methodIdentifiers": {
			"Natural()": "fcc52e97",
			"fact(uint256)": "0b95d228",
			"incre()": "fcc00319",
			"isPositive(int256)": "14df114a",
			"recSum(uint256)": "ce7738c3",
			"stopAt5(uint256)": "53e27f2a",
			"sumBackwards(uint256)": "f2a8d3bf",
			"sumExcept3(uint256)": "41dfd575",
			"test()": "f8a8fd6d"
		}
	},
	"abi": [
		{
			"inputs": [],
			"name": "Natural",
			"outputs": [],
			"stateMutability": "nonpayable",
			"type": "function"
		},
		{
			"inputs": [
				{
					"internalType": "uint256",
					"name": "num",
					"type": "uint256"
				}
			],
			"name": "fact",
			"outputs": [
				{
					"internalType": "uint256",
					"name": "",
					"type": "uint256"
				}
			],
			"stateMutability": "pure",
			"type": "function"
		},
		{
			"inputs": [],
			"name": "incre",
			"outputs": [],
			"stateMutability": "nonpayable",
			"type": "function"
		},
		{
			"inputs": [
				{
					"internalType": "int256",
					"name": "num",
					"type": "int256"
				}
			],
			"name": "isPositive",
			"outputs": [],
			"stateMutability": "pure",
			"type": "function"
		},
		{
			"inputs": [
				{
					"internalType": "uint256",
					"name": "num",
					"type": "uint256"
				}
			],
			"name": "recSum",
			"outputs": [
				{
					"internalType": "uint256",
					"name": "",
					"type": "uint256"
				}
			],
			"stateMutability": "pure",
			"type": "function"
		},
		{
			"inputs": [
				{
					"internalType": "uint256",
					"name": "num",
					"type": "uint256"
				}
			],
			"name": "stopAt5",
			"outputs": [
				{
					"internalType": "uint256",
					"name": "",
					"type": "uint256"
				}
			],
			"stateMutability": "pure",
			"type": "function"
		},
		{
			"inputs": [
				{
					"internalType": "uint256",
					"name": "num",
					"type": "uint256"
				}
			],
			"name": "sumBackwards",
			"outputs": [
				{
					"internalType": "uint256",
					"name": "",
					"type": "uint256"
				}
			],
			"stateMutability": "pure",
			"type": "function"
		},
		{
			"inputs": [
				{
					"internalType": "uint256",
					"name": "num",
					"type": "uint256"
				}
			],
			"name": "sumExcept3",
			"outputs": [
				{
					"internalType": "uint256",
					"name": "",
					"type": "uint256"
				}
			],
			"stateMutability": "pure",
			"type": "function"
		},
		{
			"inputs": [],
			"name": "test",
			"outputs": [],
			"stateMutability": "view",
			"type": "function"
		}
	]
}