{
	"data": {
		"bytecode": {
			"linkReferences": {},
			"object": "60806040525f80553480156011575f80fd5b506106758061001f5f395ff3fe608060405234801561000f575f80fd5b5060043610610055575f3560e01c80630b95d22814610059578063ce7738c314610089578063f8a8fd6d146100b9578063fcc00319146100c3578063fcc52e97146100cd575b5f80fd5b610073600480360381019061006e91906103ef565b6100d7565b6040516100809190610429565b60405180910390f35b6100a3600480360381019061009e91906103ef565b61018b565b6040516100b09190610429565b60405180910390f35b6100c16101c9565b005b6100cb6101df565b005b6100d56101f7565b005b5f80600190505f600190505b83811161010b5780826100f6919061046f565b91508080610103906104b0565b9150506100e3565b506101826040518060400160405280600d81526020017f466163746f7269616c206f662000000000000000000000000000000000000000815250846040518060400160405280600481526020017f20697320000000000000000000000000000000000000000000000000000000008152508461022f565b80915050919050565b5f805b5f8311156101b75782816101a291906104f7565b905082806101af9061052a565b93505061018e565b6101c0816102d1565b80915050919050565b60025f54036101dd576101dc5f546102d1565b5b565b5f808154809291906101f0906104b0565b9190505550565b5b60055f5410156102275761020c5f546102d1565b5f8081548092919061021d906104b0565b91905055506101f8565b5f8081905550565b6102cb8484848460405160240161024994939291906105c1565b6040516020818303038152906040527fc67ea9d1000000000000000000000000000000000000000000000000000000007bffffffffffffffffffffffffffffffffffffffffffffffffffffffff19166020820180517bffffffffffffffffffffffffffffffffffffffffffffffffffffffff838183161783525050505061036a565b50505050565b610367816040516024016102e59190610429565b6040516020818303038152906040527ff82c50f1000000000000000000000000000000000000000000000000000000007bffffffffffffffffffffffffffffffffffffffffffffffffffffffff19166020820180517bffffffffffffffffffffffffffffffffffffffffffffffffffffffff838183161783525050505061036a565b50565b610381816103796103846103a3565b63ffffffff16565b50565b5f6a636f6e736f6c652e6c6f6790505f80835160208501845afa505050565b6103ae819050919050565b6103b6610612565b565b5f80fd5b5f819050919050565b6103ce816103bc565b81146103d8575f80fd5b50565b5f813590506103e9816103c5565b92915050565b5f60208284031215610404576104036103b8565b5b5f610411848285016103db565b91505092915050565b610423816103bc565b82525050565b5f60208201905061043c5f83018461041a565b92915050565b7f4e487b71000000000000000000000000000000000000000000000000000000005f52601160045260245ffd5b5f610479826103bc565b9150610484836103bc565b9250828202610492816103bc565b915082820484148315176104a9576104a8610442565b5b5092915050565b5f6104ba826103bc565b91507fffffffffffffffffffffffffffffffffffffffffffffffffffffffffffffffff82036104ec576104eb610442565b5b600182019050919050565b5f610501826103bc565b915061050c836103bc565b925082820190508082111561052457610523610442565b5b92915050565b5f610534826103bc565b91505f820361054657610545610442565b5b600182039050919050565b5f81519050919050565b5f82825260208201905092915050565b8281835e5f83830152505050565b5f601f19601f8301169050919050565b5f61059382610551565b61059d818561055b565b93506105ad81856020860161056b565b6105b681610579565b840191505092915050565b5f6080820190508181035f8301526105d98187610589565b90506105e8602083018661041a565b81810360408301526105fa8185610589565b9050610609606083018461041a565b95945050505050565b7f4e487b71000000000000000000000000000000000000000000000000000000005f52605160045260245ffdfea264697066735822122073f977ef3ce71f92c50460f0a64a4012495aa75356e1412080ba657301df237364736f6c634300081a0033",
			"opcodes": "PUSH1 0x80 PUSH1 0x40 MSTORE PUSH0 DUP1 SSTORE CALLVALUE DUP1 ISZERO PUSH1 0x11 JUMPI PUSH0 DUP1 REVERT JUMPDEST POP PUSH2 0x675 DUP1 PUSH2 0x1F PUSH0 CODECOPY PUSH0 RETURN INVALID PUSH1 0x80 PUSH1 0x40 MSTORE CALLVALUE DUP1 ISZERO PUSH2 0xF JUMPI PUSH0 DUP1 REVERT JUMPDEST POP PUSH1 0x4 CALLDATASIZE LT PUSH2 0x55 JUMPI PUSH0 CALLDATALOAD PUSH1 0xE0 SHR DUP1 PUSH4 0xB95D228 EQ PUSH2 0x59 JUMPI DUP1 PUSH4 0xCE7738C3 EQ PUSH2 0x89 JUMPI DUP1 PUSH4 0xF8A8FD6D EQ PUSH2 0xB9 JUMPI DUP1 PUSH4 0xFCC00319 EQ PUSH2 0xC3 JUMPI DUP1 PUSH4 0xFCC52E97 EQ PUSH2 0xCD JUMPI JUMPDEST PUSH0 DUP1 REVERT JUMPDEST PUSH2 0x73 PUSH1 0x4 DUP1 CALLDATASIZE SUB DUP2 ADD SWAP1 PUSH2 0x6E SWAP2 SWAP1 PUSH2 0x3EF JUMP JUMPDEST PUSH2 0xD7 JUMP JUMPDEST PUSH1 0x40 MLOAD PUSH2 0x80 SWAP2 SWAP1 PUSH2 0x429 JUMP JUMPDEST PUSH1 0x40 MLOAD DUP1 SWAP2 SUB SWAP1 RETURN JUMPDEST PUSH2 0xA3 PUSH1 0x4 DUP1 CALLDATASIZE SUB DUP2 ADD SWAP1 PUSH2 0x9E SWAP2 SWAP1 PUSH2 0x3EF JUMP JUMPDEST PUSH2 0x18B JUMP JUMPDEST PUSH1 0x40 MLOAD PUSH2 0xB0 SWAP2 SWAP1 PUSH2 0x429 JUMP JUMPDEST PUSH1 0x40 MLOAD DUP1 SWAP2 SUB SWAP1 RETURN JUMPDEST PUSH2 0xC1 PUSH2 0x1C9 JUMP JUMPDEST STOP JUMPDEST PUSH2 0xCB PUSH2 0x1DF JUMP JUMPDEST STOP JUMPDEST PUSH2 0xD5 PUSH2 0x1F7 JUMP JUMPDEST STOP JUMPDEST PUSH0 DUP1 PUSH1 0x1 SWAP1 POP PUSH0 PUSH1 0x1 SWAP1 POP JUMPDEST DUP4 DUP2 GT PUSH2 0x10B JUMPI DUP1 DUP3 PUSH2 0xF6 SWAP2 SWAP1 PUSH2 0x46F JUMP JUMPDEST SWAP2 POP DUP1 DUP1 PUSH2 0x103 SWAP1 PUSH2 0x4B0 JUMP JUMPDEST SWAP2 POP POP PUSH2 0xE3 JUMP JUMPDEST POP PUSH2 0x182 PUSH1 0x40 MLOAD DUP1 PUSH1 0x40 ADD PUSH1 0x40 MSTORE DUP1 PUSH1 0xD DUP2 MSTORE PUSH1 0x20 ADD PUSH32 0x466163746F7269616C206F662000000000000000000000000000000000000000 DUP2 MSTORE POP DUP5 PUSH1 0x40 MLOAD DUP1 PUSH1 0x40 ADD PUSH1 0x40 MSTORE DUP1 PUSH1 0x4 DUP2 MSTORE PUSH1 0x20 ADD PUSH32 0x2069732000000000000000000000000000000000000000000000000000000000 DUP2 MSTORE POP DUP5 PUSH2 0x22F JUMP JUMPDEST DUP1 SWAP2 POP POP SWAP2 SWAP1 POP JUMP JUMPDEST PUSH0 DUP1 JUMPDEST PUSH0 DUP4 GT ISZERO PUSH2 0x1B7 JUMPI DUP3 DUP2 PUSH2 0x1A2 SWAP2 SWAP1 PUSH2 0x4F7 JUMP JUMPDEST SWAP1 POP DUP3 DUP1 PUSH2 0x1AF SWAP1 PUSH2 0x52A JUMP JUMPDEST SWAP4 POP POP PUSH2 0x18E JUMP JUMPDEST PUSH2 0x1C0 DUP2 PUSH2 0x2D1 JUMP JUMPDEST DUP1 SWAP2 POP POP SWAP2 SWAP1 POP JUMP JUMPDEST PUSH1 0x2 PUSH0 SLOAD SUB PUSH2 0x1DD JUMPI PUSH2 0x1DC PUSH0 SLOAD PUSH2 0x2D1 JUMP JUMPDEST JUMPDEST JUMP JUMPDEST PUSH0 DUP1 DUP2 SLOAD DUP1 SWAP3 SWAP2 SWAP1 PUSH2 0x1F0 SWAP1 PUSH2 0x4B0 JUMP JUMPDEST SWAP2 SWAP1 POP SSTORE POP JUMP JUMPDEST JUMPDEST PUSH1 0x5 PUSH0 SLOAD LT ISZERO PUSH2 0x227 JUMPI PUSH2 0x20C PUSH0 SLOAD PUSH2 0x2D1 JUMP JUMPDEST PUSH0 DUP1 DUP2 SLOAD DUP1 SWAP3 SWAP2 SWAP1 PUSH2 0x21D SWAP1 PUSH2 0x4B0 JUMP JUMPDEST SWAP2 SWAP1 POP SSTORE POP PUSH2 0x1F8 JUMP JUMPDEST PUSH0 DUP1 DUP2 SWAP1 SSTORE POP JUMP JUMPDEST PUSH2 0x2CB DUP5 DUP5 DUP5 DUP5 PUSH1 0x40 MLOAD PUSH1 0x24 ADD PUSH2 0x249 SWAP5 SWAP4 SWAP3 SWAP2 SWAP1 PUSH2 0x5C1 JUMP JUMPDEST PUSH1 0x40 MLOAD PUSH1 0x20 DUP2 DUP4 SUB SUB DUP2 MSTORE SWAP1 PUSH1 0x40 MSTORE PUSH32 0xC67EA9D100000000000000000000000000000000000000000000000000000000 PUSH28 0xFFFFFFFFFFFFFFFFFFFFFFFFFFFFFFFFFFFFFFFFFFFFFFFFFFFFFFFF NOT AND PUSH1 0x20 DUP3 ADD DUP1 MLOAD PUSH28 0xFFFFFFFFFFFFFFFFFFFFFFFFFFFFFFFFFFFFFFFFFFFFFFFFFFFFFFFF DUP4 DUP2 DUP4 AND OR DUP4 MSTORE POP POP POP POP PUSH2 0x36A JUMP JUMPDEST POP POP POP POP JUMP JUMPDEST PUSH2 0x367 DUP2 PUSH1 0x40 MLOAD PUSH1 0x24 ADD PUSH2 0x2E5 SWAP2 SWAP1 PUSH2 0x429 JUMP JUMPDEST PUSH1 0x40 MLOAD PUSH1 0x20 DUP2 DUP4 SUB SUB DUP2 MSTORE SWAP1 PUSH1 0x40 MSTORE PUSH32 0xF82C50F100000000000000000000000000000000000000000000000000000000 PUSH28 0xFFFFFFFFFFFFFFFFFFFFFFFFFFFFFFFFFFFFFFFFFFFFFFFFFFFFFFFF NOT AND PUSH1 0x20 DUP3 ADD DUP1 MLOAD PUSH28 0xFFFFFFFFFFFFFFFFFFFFFFFFFFFFFFFFFFFFFFFFFFFFFFFFFFFFFFFF DUP4 DUP2 DUP4 AND OR DUP4 MSTORE POP POP POP POP PUSH2 0x36A JUMP JUMPDEST POP JUMP JUMPDEST PUSH2 0x381 DUP2 PUSH2 0x379 PUSH2 0x384 PUSH2 0x3A3 JUMP JUMPDEST PUSH4 0xFFFFFFFF AND JUMP JUMPDEST POP JUMP JUMPDEST PUSH0 PUSH11 0x636F6E736F6C652E6C6F67 SWAP1 POP PUSH0 DUP1 DUP4 MLOAD PUSH1 0x20 DUP6 ADD DUP5 GAS STATICCALL POP POP POP JUMP JUMPDEST PUSH2 0x3AE DUP2 SWAP1 POP SWAP2 SWAP1 POP JUMP JUMPDEST PUSH2 0x3B6 PUSH2 0x612 JUMP JUMPDEST JUMP JUMPDEST PUSH0 DUP1 REVERT JUMPDEST PUSH0 DUP2 SWAP1 POP SWAP2 SWAP1 POP JUMP JUMPDEST PUSH2 0x3CE DUP2 PUSH2 0x3BC JUMP JUMPDEST DUP2 EQ PUSH2 0x3D8 JUMPI PUSH0 DUP1 REVERT JUMPDEST POP JUMP JUMPDEST PUSH0 DUP2 CALLDATALOAD SWAP1 POP PUSH2 0x3E9 DUP2 PUSH2 0x3C5 JUMP JUMPDEST SWAP3 SWAP2 POP POP JUMP JUMPDEST PUSH0 PUSH1 0x20 DUP3 DUP5 SUB SLT ISZERO PUSH2 0x404 JUMPI PUSH2 0x403 PUSH2 0x3B8 JUMP JUMPDEST JUMPDEST PUSH0 PUSH2 0x411 DUP5 DUP3 DUP6 ADD PUSH2 0x3DB JUMP JUMPDEST SWAP2 POP POP SWAP3 SWAP2 POP POP JUMP JUMPDEST PUSH2 0x423 DUP2 PUSH2 0x3BC JUMP JUMPDEST DUP3 MSTORE POP POP JUMP JUMPDEST PUSH0 PUSH1 0x20 DUP3 ADD SWAP1 POP PUSH2 0x43C PUSH0 DUP4 ADD DUP5 PUSH2 0x41A JUMP JUMPDEST SWAP3 SWAP2 POP POP JUMP JUMPDEST PUSH32 0x4E487B7100000000000000000000000000000000000000000000000000000000 PUSH0 MSTORE PUSH1 0x11 PUSH1 0x4 MSTORE PUSH1 0x24 PUSH0 REVERT JUMPDEST PUSH0 PUSH2 0x479 DUP3 PUSH2 0x3BC JUMP JUMPDEST SWAP2 POP PUSH2 0x484 DUP4 PUSH2 0x3BC JUMP JUMPDEST SWAP3 POP DUP3 DUP3 MUL PUSH2 0x492 DUP2 PUSH2 0x3BC JUMP JUMPDEST SWAP2 POP DUP3 DUP3 DIV DUP5 EQ DUP4 ISZERO OR PUSH2 0x4A9 JUMPI PUSH2 0x4A8 PUSH2 0x442 JUMP JUMPDEST JUMPDEST POP SWAP3 SWAP2 POP POP JUMP JUMPDEST PUSH0 PUSH2 0x4BA DUP3 PUSH2 0x3BC JUMP JUMPDEST SWAP2 POP PUSH32 0xFFFFFFFFFFFFFFFFFFFFFFFFFFFFFFFFFFFFFFFFFFFFFFFFFFFFFFFFFFFFFFFF DUP3 SUB PUSH2 0x4EC JUMPI PUSH2 0x4EB PUSH2 0x442 JUMP JUMPDEST JUMPDEST PUSH1 0x1 DUP3 ADD SWAP1 POP SWAP2 SWAP1 POP JUMP JUMPDEST PUSH0 PUSH2 0x501 DUP3 PUSH2 0x3BC JUMP JUMPDEST SWAP2 POP PUSH2 0x50C DUP4 PUSH2 0x3BC JUMP JUMPDEST SWAP3 POP DUP3 DUP3 ADD SWAP1 POP DUP1 DUP3 GT ISZERO PUSH2 0x524 JUMPI PUSH2 0x523 PUSH2 0x442 JUMP JUMPDEST JUMPDEST SWAP3 SWAP2 POP POP JUMP JUMPDEST PUSH0 PUSH2 0x534 DUP3 PUSH2 0x3BC JUMP JUMPDEST SWAP2 POP PUSH0 DUP3 SUB PUSH2 0x546 JUMPI PUSH2 0x545 PUSH2 0x442 JUMP JUMPDEST JUMPDEST PUSH1 0x1 DUP3 SUB SWAP1 POP SWAP2 SWAP1 POP JUMP JUMPDEST PUSH0 DUP2 MLOAD SWAP1 POP SWAP2 SWAP1 POP JUMP JUMPDEST PUSH0 DUP3 DUP3 MSTORE PUSH1 0x20 DUP3 ADD SWAP1 POP SWAP3 SWAP2 POP POP JUMP JUMPDEST DUP3 DUP2 DUP4 MCOPY PUSH0 DUP4 DUP4 ADD MSTORE POP POP POP JUMP JUMPDEST PUSH0 PUSH1 0x1F NOT PUSH1 0x1F DUP4 ADD AND SWAP1 POP SWAP2 SWAP1 POP JUMP JUMPDEST PUSH0 PUSH2 0x593 DUP3 PUSH2 0x551 JUMP JUMPDEST PUSH2 0x59D DUP2 DUP6 PUSH2 0x55B JUMP JUMPDEST SWAP4 POP PUSH2 0x5AD DUP2 DUP6 PUSH1 0x20 DUP7 ADD PUSH2 0x56B JUMP JUMPDEST PUSH2 0x5B6 DUP2 PUSH2 0x579 JUMP JUMPDEST DUP5 ADD SWAP2 POP POP SWAP3 SWAP2 POP POP JUMP JUMPDEST PUSH0 PUSH1 0x80 DUP3 ADD SWAP1 POP DUP2 DUP2 SUB PUSH0 DUP4 ADD MSTORE PUSH2 0x5D9 DUP2 DUP8 PUSH2 0x589 JUMP JUMPDEST SWAP1 POP PUSH2 0x5E8 PUSH1 0x20 DUP4 ADD DUP7 PUSH2 0x41A JUMP JUMPDEST DUP2 DUP2 SUB PUSH1 0x40 DUP4 ADD MSTORE PUSH2 0x5FA DUP2 DUP6 PUSH2 0x589 JUMP JUMPDEST SWAP1 POP PUSH2 0x609 PUSH1 0x60 DUP4 ADD DUP5 PUSH2 0x41A JUMP JUMPDEST SWAP6 SWAP5 POP POP POP POP POP JUMP JUMPDEST PUSH32 0x4E487B7100000000000000000000000000000000000000000000000000000000 PUSH0 MSTORE PUSH1 0x51 PUSH1 0x4 MSTORE PUSH1 0x24 PUSH0 REVERT INVALID LOG2 PUSH5 0x6970667358 0x22 SLT KECCAK256 PUSH20 0xF977EF3CE71F92C50460F0A64A4012495AA75356 0xE1 COINBASE KECCAK256 DUP1 0xBA PUSH6 0x7301DF237364 PUSH20 0x6F6C634300081A00330000000000000000000000 "
		},
		"gasEstimates": {
			"creation": {
				"codeDepositCost": "330600",
				"executionCost": "5371",
				"totalCost": "335971"
			},
			"external": {
				"Natural()": "infinite",
				"fact(uint256)": "infinite",
				"incre()": "24541",
				"recSum(uint256)": "infinite",
				"test()": "infinite"
			}
		},
		"methodIdentifiers": {
			"Natural()": "fcc52e97",
			"fact(uint256)": "0b95d228",
			"incre()": "fcc00319",
			"recSum(uint256)": "ce7738c3",
			"test()": "f8a8fd6d"
		}
	},
	"abi": [
		{
			"inputs": [],
			"name": "Natural",
			"outputs": [],
			"stateMutability": "nonpayable",
			"type": "function"
		},
		{
			"inputs": [
				{
					"internalType": "uint256",
					"name": "num",
					"type": "uint256"
				}
			],
			"name": "fact",
			"outputs": [
				{
					"internalType": "uint256",
					"name": "",
					"type": "uint256"
				}
			],
			"stateMutability": "pure",
			"type": "function"
		},
		{
			"inputs": [],
			"name": "incre",
			"outputs": [],
			"stateMutability": "nonpayable",
			"type": "function"
		},
		{
			"inputs": [
				{
					"internalType": "uint256",
					"name": "num",
					"type": "uint256"
				}
			],
			"name": "recSum",
			"outputs": [
				{
					"internalType": "uint256",
					"name": "",
					"type": "uint256"
				}
			],
			"stateMutability": "pure",
			"type": "function"
		},
		{
			"inputs": [],
			"name": "test",
			"outputs": [],
			"stateMutability": "view",
			"type": "function"
		}
	]
}