{
	"data": {
		"bytecode": {
			"linkReferences": {},
			"object": "608060405260645f553480156012575f80fd5b506103af806100205f395ff3fe608060405234801561000f575f80fd5b506004361061004a575f3560e01c80630f87a0441461004e5780632e1a7d4d1461006a578063b69ef8a814610086578063c71daccb146100a4575b5f80fd5b610068600480360381019061006391906101b9565b6100ae565b005b610084600480360381019061007f91906101b9565b61010c565b005b61008e61016a565b60405161009b91906101f3565b60405180910390f35b6100ac61016f565b005b805f5410156100f2576040517f08c379a00000000000000000000000000000000000000000000000000000000081526004016100e990610266565b60405180910390fd5b805f8082825461010291906102b1565b9250508190555050565b805f541015610150576040517f08c379a00000000000000000000000000000000000000000000000000000000081526004016101479061032e565b60405180910390fd5b805f8082825461016091906102b1565b9250508190555050565b5f5481565b5f8054116101805761017f61034c565b5b565b5f80fd5b5f819050919050565b61019881610186565b81146101a2575f80fd5b50565b5f813590506101b38161018f565b92915050565b5f602082840312156101ce576101cd610182565b5b5f6101db848285016101a5565b91505092915050565b6101ed81610186565b82525050565b5f6020820190506102065f8301846101e4565b92915050565b5f82825260208201905092915050565b7f496e73756666696369656e742062616c616e63652072657665727400000000005f82015250565b5f610250601b8361020c565b915061025b8261021c565b602082019050919050565b5f6020820190508181035f83015261027d81610244565b9050919050565b7f4e487b71000000000000000000000000000000000000000000000000000000005f52601160045260245ffd5b5f6102bb82610186565b91506102c683610186565b92508282039050818111156102de576102dd610284565b5b92915050565b7f4e6f7420656e6f756768206d6f6e6579000000000000000000000000000000005f82015250565b5f61031860108361020c565b9150610323826102e4565b602082019050919050565b5f6020820190508181035f8301526103458161030c565b9050919050565b7f4e487b71000000000000000000000000000000000000000000000000000000005f52600160045260245ffdfea26469706673582212204b277111dafe99bfe5f1867d417d87af7b81e2375ed2ae8466b31519773a9ae164736f6c634300081a0033",
			"opcodes": "PUSH1 0x80 PUSH1 0x40 MSTORE PUSH1 0x64 PUSH0 SSTORE CALLVALUE DUP1 ISZERO PUSH1 0x12 JUMPI PUSH0 DUP1 REVERT JUMPDEST POP PUSH2 0x3AF DUP1 PUSH2 0x20 PUSH0 CODECOPY PUSH0 RETURN INVALID PUSH1 0x80 PUSH1 0x40 MSTORE CALLVALUE DUP1 ISZERO PUSH2 0xF JUMPI PUSH0 DUP1 REVERT JUMPDEST POP PUSH1 0x4 CALLDATASIZE LT PUSH2 0x4A JUMPI PUSH0 CALLDATALOAD PUSH1 0xE0 SHR DUP1 PUSH4 0xF87A044 EQ PUSH2 0x4E JUMPI DUP1 PUSH4 0x2E1A7D4D EQ PUSH2 0x6A JUMPI DUP1 PUSH4 0xB69EF8A8 EQ PUSH2 0x86 JUMPI DUP1 PUSH4 0xC71DACCB EQ PUSH2 0xA4 JUMPI JUMPDEST PUSH0 DUP1 REVERT JUMPDEST PUSH2 0x68 PUSH1 0x4 DUP1 CALLDATASIZE SUB DUP2 ADD SWAP1 PUSH2 0x63 SWAP2 SWAP1 PUSH2 0x1B9 JUMP JUMPDEST PUSH2 0xAE JUMP JUMPDEST STOP JUMPDEST PUSH2 0x84 PUSH1 0x4 DUP1 CALLDATASIZE SUB DUP2 ADD SWAP1 PUSH2 0x7F SWAP2 SWAP1 PUSH2 0x1B9 JUMP JUMPDEST PUSH2 0x10C JUMP JUMPDEST STOP JUMPDEST PUSH2 0x8E PUSH2 0x16A JUMP JUMPDEST PUSH1 0x40 MLOAD PUSH2 0x9B SWAP2 SWAP1 PUSH2 0x1F3 JUMP JUMPDEST PUSH1 0x40 MLOAD DUP1 SWAP2 SUB SWAP1 RETURN JUMPDEST PUSH2 0xAC PUSH2 0x16F JUMP JUMPDEST STOP JUMPDEST DUP1 PUSH0 SLOAD LT ISZERO PUSH2 0xF2 JUMPI PUSH1 0x40 MLOAD PUSH32 0x8C379A000000000000000000000000000000000000000000000000000000000 DUP2 MSTORE PUSH1 0x4 ADD PUSH2 0xE9 SWAP1 PUSH2 0x266 JUMP JUMPDEST PUSH1 0x40 MLOAD DUP1 SWAP2 SUB SWAP1 REVERT JUMPDEST DUP1 PUSH0 DUP1 DUP3 DUP3 SLOAD PUSH2 0x102 SWAP2 SWAP1 PUSH2 0x2B1 JUMP JUMPDEST SWAP3 POP POP DUP2 SWAP1 SSTORE POP POP JUMP JUMPDEST DUP1 PUSH0 SLOAD LT ISZERO PUSH2 0x150 JUMPI PUSH1 0x40 MLOAD PUSH32 0x8C379A000000000000000000000000000000000000000000000000000000000 DUP2 MSTORE PUSH1 0x4 ADD PUSH2 0x147 SWAP1 PUSH2 0x32E JUMP JUMPDEST PUSH1 0x40 MLOAD DUP1 SWAP2 SUB SWAP1 REVERT JUMPDEST DUP1 PUSH0 DUP1 DUP3 DUP3 SLOAD PUSH2 0x160 SWAP2 SWAP1 PUSH2 0x2B1 JUMP JUMPDEST SWAP3 POP POP DUP2 SWAP1 SSTORE POP POP JUMP JUMPDEST PUSH0 SLOAD DUP2 JUMP JUMPDEST PUSH0 DUP1 SLOAD GT PUSH2 0x180 JUMPI PUSH2 0x17F PUSH2 0x34C JUMP JUMPDEST JUMPDEST JUMP JUMPDEST PUSH0 DUP1 REVERT JUMPDEST PUSH0 DUP2 SWAP1 POP SWAP2 SWAP1 POP JUMP JUMPDEST PUSH2 0x198 DUP2 PUSH2 0x186 JUMP JUMPDEST DUP2 EQ PUSH2 0x1A2 JUMPI PUSH0 DUP1 REVERT JUMPDEST POP JUMP JUMPDEST PUSH0 DUP2 CALLDATALOAD SWAP1 POP PUSH2 0x1B3 DUP2 PUSH2 0x18F JUMP JUMPDEST SWAP3 SWAP2 POP POP JUMP JUMPDEST PUSH0 PUSH1 0x20 DUP3 DUP5 SUB SLT ISZERO PUSH2 0x1CE JUMPI PUSH2 0x1CD PUSH2 0x182 JUMP JUMPDEST JUMPDEST PUSH0 PUSH2 0x1DB DUP5 DUP3 DUP6 ADD PUSH2 0x1A5 JUMP JUMPDEST SWAP2 POP POP SWAP3 SWAP2 POP POP JUMP JUMPDEST PUSH2 0x1ED DUP2 PUSH2 0x186 JUMP JUMPDEST DUP3 MSTORE POP POP JUMP JUMPDEST PUSH0 PUSH1 0x20 DUP3 ADD SWAP1 POP PUSH2 0x206 PUSH0 DUP4 ADD DUP5 PUSH2 0x1E4 JUMP JUMPDEST SWAP3 SWAP2 POP POP JUMP JUMPDEST PUSH0 DUP3 DUP3 MSTORE PUSH1 0x20 DUP3 ADD SWAP1 POP SWAP3 SWAP2 POP POP JUMP JUMPDEST PUSH32 0x496E73756666696369656E742062616C616E6365207265766572740000000000 PUSH0 DUP3 ADD MSTORE POP JUMP JUMPDEST PUSH0 PUSH2 0x250 PUSH1 0x1B DUP4 PUSH2 0x20C JUMP JUMPDEST SWAP2 POP PUSH2 0x25B DUP3 PUSH2 0x21C JUMP JUMPDEST PUSH1 0x20 DUP3 ADD SWAP1 POP SWAP2 SWAP1 POP JUMP JUMPDEST PUSH0 PUSH1 0x20 DUP3 ADD SWAP1 POP DUP2 DUP2 SUB PUSH0 DUP4 ADD MSTORE PUSH2 0x27D DUP2 PUSH2 0x244 JUMP JUMPDEST SWAP1 POP SWAP2 SWAP1 POP JUMP JUMPDEST PUSH32 0x4E487B7100000000000000000000000000000000000000000000000000000000 PUSH0 MSTORE PUSH1 0x11 PUSH1 0x4 MSTORE PUSH1 0x24 PUSH0 REVERT JUMPDEST PUSH0 PUSH2 0x2BB DUP3 PUSH2 0x186 JUMP JUMPDEST SWAP2 POP PUSH2 0x2C6 DUP4 PUSH2 0x186 JUMP JUMPDEST SWAP3 POP DUP3 DUP3 SUB SWAP1 POP DUP2 DUP2 GT ISZERO PUSH2 0x2DE JUMPI PUSH2 0x2DD PUSH2 0x284 JUMP JUMPDEST JUMPDEST SWAP3 SWAP2 POP POP JUMP JUMPDEST PUSH32 0x4E6F7420656E6F756768206D6F6E657900000000000000000000000000000000 PUSH0 DUP3 ADD MSTORE POP JUMP JUMPDEST PUSH0 PUSH2 0x318 PUSH1 0x10 DUP4 PUSH2 0x20C JUMP JUMPDEST SWAP2 POP PUSH2 0x323 DUP3 PUSH2 0x2E4 JUMP JUMPDEST PUSH1 0x20 DUP3 ADD SWAP1 POP SWAP2 SWAP1 POP JUMP JUMPDEST PUSH0 PUSH1 0x20 DUP3 ADD SWAP1 POP DUP2 DUP2 SUB PUSH0 DUP4 ADD MSTORE PUSH2 0x345 DUP2 PUSH2 0x30C JUMP JUMPDEST SWAP1 POP SWAP2 SWAP1 POP JUMP JUMPDEST PUSH32 0x4E487B7100000000000000000000000000000000000000000000000000000000 PUSH0 MSTORE PUSH1 0x1 PUSH1 0x4 MSTORE PUSH1 0x24 PUSH0 REVERT INVALID LOG2 PUSH5 0x6970667358 0x22 SLT KECCAK256 0x4B 0x27 PUSH18 0x11DAFE99BFE5F1867D417D87AF7B81E2375E 0xD2 0xAE DUP5 PUSH7 0xB31519773A9AE1 PUSH5 0x736F6C6343 STOP ADDMOD BYTE STOP CALLER "
		},
		"gasEstimates": {
			"creation": {
				"codeDepositCost": "188600",
				"executionCost": "22335",
				"totalCost": "210935"
			},
			"external": {
				"balance()": "2446",
				"checkBalance()": "2336",
				"withdraw(uint256)": "infinite",
				"withdraw1(uint256)": "infinite"
			}
		},
		"methodIdentifiers": {
			"balance()": "b69ef8a8",
			"checkBalance()": "c71daccb",
			"withdraw(uint256)": "2e1a7d4d",
			"withdraw1(uint256)": "0f87a044"
		}
	},
	"abi": [
		{
			"inputs": [],
			"name": "balance",
			"outputs": [
				{
					"internalType": "uint256",
					"name": "",
					"type": "uint256"
				}
			],
			"stateMutability": "view",
			"type": "function"
		},
		{
			"inputs": [],
			"name": "checkBalance",
			"outputs": [],
			"stateMutability": "view",
			"type": "function"
		},
		{
			"inputs": [
				{
					"internalType": "uint256",
					"name": "amount",
					"type": "uint256"
				}
			],
			"name": "withdraw",
			"outputs": [],
			"stateMutability": "nonpayable",
			"type": "function"
		},
		{
			"inputs": [
				{
					"internalType": "uint256",
					"name": "amount",
					"type": "uint256"
				}
			],
			"name": "withdraw1",
			"outputs": [],
			"stateMutability": "nonpayable",
			"type": "function"
		}
	]
}